{
  "_format": "hh-sol-artifact-1",
  "contractName": "Lottery",
  "sourceName": "contracts/lottery/Lottery.sol",
  "abi": [
    {
      "inputs": [],
      "stateMutability": "nonpayable",
      "type": "constructor"
    },
    {
      "anonymous": false,
      "inputs": [
        {
          "indexed": true,
          "internalType": "address",
          "name": "user",
          "type": "address"
        },
        {
          "indexed": false,
          "internalType": "uint256",
          "name": "tokenId",
          "type": "uint256"
        }
      ],
      "name": "Buy",
      "type": "event"
    },
    {
      "anonymous": false,
      "inputs": [
        {
          "indexed": true,
          "internalType": "address",
          "name": "user",
          "type": "address"
        },
        {
          "indexed": false,
          "internalType": "uint256",
          "name": "tokenid",
          "type": "uint256"
        },
        {
          "indexed": false,
          "internalType": "uint256",
          "name": "amount",
          "type": "uint256"
        }
      ],
      "name": "Claim",
      "type": "event"
    },
    {
      "anonymous": false,
      "inputs": [
        {
          "indexed": true,
          "internalType": "address",
          "name": "user",
          "type": "address"
        },
        {
          "indexed": false,
          "internalType": "uint256",
          "name": "amount",
          "type": "uint256"
        }
      ],
      "name": "DevWithdraw",
      "type": "event"
    },
    {
      "anonymous": false,
      "inputs": [
        {
          "indexed": true,
          "internalType": "uint256",
          "name": "issueIndex",
          "type": "uint256"
        },
        {
          "indexed": false,
          "internalType": "uint8[4]",
          "name": "winningNumbers",
          "type": "uint8[4]"
        }
      ],
      "name": "Drawing",
      "type": "event"
    },
    {
      "anonymous": false,
      "inputs": [
        {
          "indexed": true,
          "internalType": "address",
          "name": "user",
          "type": "address"
        },
        {
          "indexed": false,
          "internalType": "uint256",
          "name": "amount",
          "type": "uint256"
        }
      ],
      "name": "MultiBuy",
      "type": "event"
    },
    {
      "anonymous": false,
      "inputs": [
        {
          "indexed": true,
          "internalType": "address",
          "name": "user",
          "type": "address"
        },
        {
          "indexed": false,
          "internalType": "uint256",
          "name": "amount",
          "type": "uint256"
        }
      ],
      "name": "MultiClaim",
      "type": "event"
    },
    {
      "anonymous": false,
      "inputs": [
        {
          "indexed": true,
          "internalType": "address",
          "name": "previousOwner",
          "type": "address"
        },
        {
          "indexed": true,
          "internalType": "address",
          "name": "newOwner",
          "type": "address"
        }
      ],
      "name": "OwnershipTransferred",
      "type": "event"
    },
    {
      "anonymous": false,
      "inputs": [
        {
          "indexed": true,
          "internalType": "uint256",
          "name": "issueIndex",
          "type": "uint256"
        }
      ],
      "name": "Reset",
      "type": "event"
    },
    {
      "anonymous": false,
      "inputs": [
        {
          "indexed": true,
          "internalType": "address",
          "name": "user",
          "type": "address"
        },
        {
          "indexed": true,
          "internalType": "address",
          "name": "admin",
          "type": "address"
        }
      ],
      "name": "SetAdmin",
      "type": "event"
    },
    {
      "anonymous": false,
      "inputs": [
        {
          "indexed": true,
          "internalType": "address",
          "name": "user",
          "type": "address"
        },
        {
          "indexed": false,
          "internalType": "uint8",
          "name": "allocation1",
          "type": "uint8"
        },
        {
          "indexed": false,
          "internalType": "uint8",
          "name": "allocation2",
          "type": "uint8"
        },
        {
          "indexed": false,
          "internalType": "uint8",
          "name": "allocation3",
          "type": "uint8"
        }
      ],
      "name": "SetAllocation",
      "type": "event"
    },
    {
      "anonymous": false,
      "inputs": [
        {
          "indexed": true,
          "internalType": "address",
          "name": "user",
          "type": "address"
        },
        {
          "indexed": false,
          "internalType": "uint256",
          "name": "number",
          "type": "uint256"
        }
      ],
      "name": "SetMaxNumber",
      "type": "event"
    },
    {
      "anonymous": false,
      "inputs": [
        {
          "indexed": true,
          "internalType": "address",
          "name": "user",
          "type": "address"
        },
        {
          "indexed": false,
          "internalType": "uint256",
          "name": "price",
          "type": "uint256"
        }
      ],
      "name": "SetMinPrice",
      "type": "event"
    },
    {
      "inputs": [],
      "name": "adminAddress",
      "outputs": [
        {
          "internalType": "address",
          "name": "",
          "type": "address"
        }
      ],
      "stateMutability": "view",
      "type": "function"
    },
    {
      "inputs": [
        {
          "internalType": "uint256",
          "name": "_amount",
          "type": "uint256"
        }
      ],
      "name": "adminWithdraw",
      "outputs": [],
      "stateMutability": "nonpayable",
      "type": "function"
    },
    {
      "inputs": [
        {
          "internalType": "uint256",
          "name": "",
          "type": "uint256"
        }
      ],
      "name": "allocation",
      "outputs": [
        {
          "internalType": "uint8",
          "name": "",
          "type": "uint8"
        }
      ],
      "stateMutability": "view",
      "type": "function"
    },
    {
      "inputs": [
        {
          "internalType": "uint256",
          "name": "_price",
          "type": "uint256"
        },
        {
          "internalType": "uint8[4]",
          "name": "_numbers",
          "type": "uint8[4]"
        }
      ],
      "name": "buy",
      "outputs": [],
      "stateMutability": "nonpayable",
      "type": "function"
    },
    {
      "inputs": [
        {
          "internalType": "uint256",
          "name": "_tokenId",
          "type": "uint256"
        }
      ],
      "name": "claimReward",
      "outputs": [],
      "stateMutability": "nonpayable",
      "type": "function"
    },
    {
      "inputs": [],
      "name": "drawed",
      "outputs": [
        {
          "internalType": "bool",
          "name": "",
          "type": "bool"
        }
      ],
      "stateMutability": "view",
      "type": "function"
    },
    {
      "inputs": [
        {
          "internalType": "uint256",
          "name": "_externalRandomNumber",
          "type": "uint256"
        }
      ],
      "name": "drawing",
      "outputs": [],
      "stateMutability": "nonpayable",
      "type": "function"
    },
    {
      "inputs": [],
      "name": "drawingPhase",
      "outputs": [
        {
          "internalType": "bool",
          "name": "",
          "type": "bool"
        }
      ],
      "stateMutability": "view",
      "type": "function"
    },
    {
      "inputs": [],
      "name": "enterDrawingPhase",
      "outputs": [],
      "stateMutability": "nonpayable",
      "type": "function"
    },
    {
      "inputs": [
        {
          "internalType": "uint8[4]",
          "name": "number",
          "type": "uint8[4]"
        }
      ],
      "name": "generateCombinations",
      "outputs": [
        {
          "internalType": "uint32[11]",
          "name": "",
          "type": "uint32[11]"
        }
      ],
      "stateMutability": "pure",
      "type": "function"
    },
    {
      "inputs": [
        {
          "internalType": "uint256",
          "name": "_issueIndex",
          "type": "uint256"
        },
        {
          "internalType": "uint256",
          "name": "_matchingNumber",
          "type": "uint256"
        }
      ],
      "name": "getMatchingRewardAmount",
      "outputs": [
        {
          "internalType": "uint256",
          "name": "",
          "type": "uint256"
        }
      ],
      "stateMutability": "view",
      "type": "function"
    },
    {
      "inputs": [
        {
          "internalType": "uint256",
          "name": "_tokenId",
          "type": "uint256"
        }
      ],
      "name": "getRewardView",
      "outputs": [
        {
          "internalType": "uint256",
          "name": "",
          "type": "uint256"
        }
      ],
      "stateMutability": "view",
      "type": "function"
    },
    {
      "inputs": [
        {
          "internalType": "uint256",
          "name": "_issueIndex",
          "type": "uint256"
        }
      ],
      "name": "getTotalRewards",
      "outputs": [
        {
          "internalType": "uint256",
          "name": "",
          "type": "uint256"
        }
      ],
      "stateMutability": "view",
      "type": "function"
    },
    {
      "inputs": [
        {
          "internalType": "uint256",
          "name": "",
          "type": "uint256"
        },
        {
          "internalType": "uint256",
          "name": "",
          "type": "uint256"
        }
      ],
      "name": "historyAmount",
      "outputs": [
        {
          "internalType": "uint256",
          "name": "",
          "type": "uint256"
        }
      ],
      "stateMutability": "view",
      "type": "function"
    },
    {
      "inputs": [
        {
          "internalType": "uint256",
          "name": "",
          "type": "uint256"
        },
        {
          "internalType": "uint256",
          "name": "",
          "type": "uint256"
        }
      ],
      "name": "historyNumbers",
      "outputs": [
        {
          "internalType": "uint8",
          "name": "",
          "type": "uint8"
        }
      ],
      "stateMutability": "view",
      "type": "function"
    },
    {
      "inputs": [
        {
          "internalType": "contract IBEP20",
          "name": "_lqdr",
          "type": "address"
        },
        {
          "internalType": "contract LotteryNFT",
          "name": "_lottery",
          "type": "address"
        },
        {
          "internalType": "uint256",
          "name": "_minPrice",
          "type": "uint256"
        },
        {
          "internalType": "uint8",
          "name": "_maxNumber",
          "type": "uint8"
        },
        {
          "internalType": "address",
          "name": "_adminAddress",
          "type": "address"
        }
      ],
      "name": "initialize",
      "outputs": [],
      "stateMutability": "nonpayable",
      "type": "function"
    },
    {
      "inputs": [],
      "name": "issueIndex",
      "outputs": [
        {
          "internalType": "uint256",
          "name": "",
          "type": "uint256"
        }
      ],
      "stateMutability": "view",
      "type": "function"
    },
    {
      "inputs": [],
      "name": "lastTimestamp",
      "outputs": [
        {
          "internalType": "uint256",
          "name": "",
          "type": "uint256"
        }
      ],
      "stateMutability": "view",
      "type": "function"
    },
    {
      "inputs": [
        {
          "internalType": "uint256",
          "name": "",
          "type": "uint256"
        },
        {
          "internalType": "uint256",
          "name": "",
          "type": "uint256"
        }
      ],
      "name": "lotteryInfo",
      "outputs": [
        {
          "internalType": "uint256",
          "name": "",
          "type": "uint256"
        }
      ],
      "stateMutability": "view",
      "type": "function"
    },
    {
      "inputs": [],
      "name": "lotteryNFT",
      "outputs": [
        {
          "internalType": "contract LotteryNFT",
          "name": "",
          "type": "address"
        }
      ],
      "stateMutability": "view",
      "type": "function"
    },
    {
      "inputs": [],
      "name": "lqdr",
      "outputs": [
        {
          "internalType": "contract IBEP20",
          "name": "",
          "type": "address"
        }
      ],
      "stateMutability": "view",
      "type": "function"
    },
    {
      "inputs": [],
      "name": "maxNumber",
      "outputs": [
        {
          "internalType": "uint8",
          "name": "",
          "type": "uint8"
        }
      ],
      "stateMutability": "view",
      "type": "function"
    },
    {
      "inputs": [],
      "name": "minPrice",
      "outputs": [
        {
          "internalType": "uint256",
          "name": "",
          "type": "uint256"
        }
      ],
      "stateMutability": "view",
      "type": "function"
    },
    {
      "inputs": [
        {
          "internalType": "uint256",
          "name": "_price",
          "type": "uint256"
        },
        {
          "internalType": "uint8[4][]",
          "name": "_numbers",
          "type": "uint8[4][]"
        }
      ],
      "name": "multiBuy",
      "outputs": [],
      "stateMutability": "nonpayable",
      "type": "function"
    },
    {
      "inputs": [
        {
          "internalType": "uint256[]",
          "name": "_tickets",
          "type": "uint256[]"
        }
      ],
      "name": "multiClaim",
      "outputs": [],
      "stateMutability": "nonpayable",
      "type": "function"
    },
    {
      "inputs": [],
      "name": "owner",
      "outputs": [
        {
          "internalType": "address",
          "name": "",
          "type": "address"
        }
      ],
      "stateMutability": "view",
      "type": "function"
    },
    {
      "inputs": [],
      "name": "renounceOwnership",
      "outputs": [],
      "stateMutability": "nonpayable",
      "type": "function"
    },
    {
      "inputs": [],
      "name": "reset",
      "outputs": [],
      "stateMutability": "nonpayable",
      "type": "function"
    },
    {
      "inputs": [
        {
          "internalType": "address",
          "name": "_adminAddress",
          "type": "address"
        }
      ],
      "name": "setAdmin",
      "outputs": [],
      "stateMutability": "nonpayable",
      "type": "function"
    },
    {
      "inputs": [
        {
          "internalType": "uint8",
          "name": "_allcation1",
          "type": "uint8"
        },
        {
          "internalType": "uint8",
          "name": "_allcation2",
          "type": "uint8"
        },
        {
          "internalType": "uint8",
          "name": "_allcation3",
          "type": "uint8"
        }
      ],
      "name": "setAllocation",
      "outputs": [],
      "stateMutability": "nonpayable",
      "type": "function"
    },
    {
      "inputs": [
        {
          "internalType": "uint8",
          "name": "_maxNumber",
          "type": "uint8"
        }
      ],
      "name": "setMaxNumber",
      "outputs": [],
      "stateMutability": "nonpayable",
      "type": "function"
    },
    {
      "inputs": [
        {
          "internalType": "uint256",
          "name": "_price",
          "type": "uint256"
        }
      ],
      "name": "setMinPrice",
      "outputs": [],
      "stateMutability": "nonpayable",
      "type": "function"
    },
    {
      "inputs": [],
      "name": "totalAddresses",
      "outputs": [
        {
          "internalType": "uint256",
          "name": "",
          "type": "uint256"
        }
      ],
      "stateMutability": "view",
      "type": "function"
    },
    {
      "inputs": [],
      "name": "totalAmount",
      "outputs": [
        {
          "internalType": "uint256",
          "name": "",
          "type": "uint256"
        }
      ],
      "stateMutability": "view",
      "type": "function"
    },
    {
      "inputs": [
        {
          "internalType": "address",
          "name": "newOwner",
          "type": "address"
        }
      ],
      "name": "transferOwnership",
      "outputs": [],
      "stateMutability": "nonpayable",
      "type": "function"
    },
    {
      "inputs": [
        {
          "internalType": "uint256",
          "name": "",
          "type": "uint256"
        },
        {
          "internalType": "uint64",
          "name": "",
          "type": "uint64"
        }
      ],
      "name": "userBuyAmountSum",
      "outputs": [
        {
          "internalType": "uint256",
          "name": "",
          "type": "uint256"
        }
      ],
      "stateMutability": "view",
      "type": "function"
    },
    {
      "inputs": [
        {
          "internalType": "address",
          "name": "",
          "type": "address"
        },
        {
          "internalType": "uint256",
          "name": "",
          "type": "uint256"
        }
      ],
      "name": "userInfo",
      "outputs": [
        {
          "internalType": "uint256",
          "name": "",
          "type": "uint256"
        }
      ],
      "stateMutability": "view",
      "type": "function"
    },
    {
      "inputs": [
        {
          "internalType": "uint256",
          "name": "",
          "type": "uint256"
        }
      ],
      "name": "winningNumbers",
      "outputs": [
        {
          "internalType": "uint8",
          "name": "",
          "type": "uint8"
        }
      ],
      "stateMutability": "view",
      "type": "function"
    }
  ],
  "bytecode": "0x60806040526000606f55600060705560006071556040518060800160405280600060ff168152602001600060ff168152602001600060ff168152602001600060ff168152506075906004620000569291906200006b565b503480156200006457600080fd5b5062000136565b826004601f01602090048101928215620000f95791602002820160005b83821115620000c857835183826101000a81548160ff021916908360ff160217905550926020019260010160208160000104928301926001030262000088565b8015620000f75782816101000a81549060ff0219169055600101602081600001049283019260010302620000c8565b505b5090506200010891906200010c565b5090565b5b808211156200013257600081816101000a81549060ff0219169055506001016200010d565b5090565b6154d780620001466000396000f3fe608060405234801561001057600080fd5b50600436106102325760003560e01c80636a28f82811610130578063cfad5277116100b8578063e13454161161007c578063e134541614610b48578063e45be8eb14610b68578063e8adfbc714610b86578063f2fde38b14610bba578063fc6f946814610bfe57610232565b8063cfad5277146109f7578063d1f7dbcf14610a15578063d411b0fa14610a61578063d826f88f14610aa3578063dc41825b14610aad57610232565b8063850bad94116100ff578063850bad94146108d65780638da5cb5b1461091b578063a42206c91461094f578063ae169a501461097d578063c39f49c0146109ab57610232565b80636a28f8281461083c578063704b6c021461085a578063715018a61461089e5780637c5b4a37146108a857610232565b80633a4f6999116101be5780635693371911610182578063569337191461068757806359bcbd68146107285780635c17623a146107775780635ea8cd12146107c25780636575243f146107f057610232565b80633a4f699914610507578063438209f5146105285780634e45f095146105485780634ed73d281461058d578063552164ee1461064557610232565b80631ff68866116102055780631ff688661461031657806321ce919d146103205780632bdff851146103825780632f506b2014610480578063324a5562146104d657610232565b80630714f3fc1461023757806314c20d571461026b57806319d8ac61146102da5780631a39d8ef146102f8575b600080fd5b61023f610c32565b604051808273ffffffffffffffffffffffffffffffffffffffff16815260200191505060405180910390f35b6102d8600480360360a081101561028157600080fd5b810190808035906020019092919080608001906004806020026040519081016040528092919082600460200280828437600081840152601f19601f8201169050808301925050505050509192919290505050610c58565b005b6102e2610e7e565b6040518082815260200191505060405180910390f35b610300610e84565b6040518082815260200191505060405180910390f35b61031e610e8a565b005b61036c6004803603604081101561033657600080fd5b81019080803573ffffffffffffffffffffffffffffffffffffffff16906020019092919080359060200190929190505050610fe5565b6040518082815260200191505060405180910390f35b61047e6004803603604081101561039857600080fd5b8101908080359060200190929190803590602001906401000000008111156103bf57600080fd5b8201836020820111156103d157600080fd5b803590602001918460808302840111640100000000831117156103f357600080fd5b9190808060200260200160405190810160405280939291908181526020016000905b8282101561046c578484839050608002016004806020026040519081016040528092919082600460200280828437600081840152601f19601f82011690508083019250505050505081526020019060010190610415565b50505050509192919290505050611013565b005b6104c06004803603604081101561049657600080fd5b8101908080359060200190929190803567ffffffffffffffff1690602001909291905050506111f6565b6040518082815260200191505060405180910390f35b610505600480360360208110156104ec57600080fd5b81019080803560ff16906020019092919050505061121b565b005b61050f61134d565b604051808260ff16815260200191505060405180910390f35b610530611360565b60405180821515815260200191505060405180910390f35b6105746004803603602081101561055e57600080fd5b8101908080359060200190929190505050611373565b604051808260ff16815260200191505060405180910390f35b610643600480360360208110156105a357600080fd5b81019080803590602001906401000000008111156105c057600080fd5b8201836020820111156105d257600080fd5b803590602001918460208302840111640100000000831117156105f457600080fd5b919080806020026020016040519081016040528093929190818152602001838360200280828437600081840152601f19601f82011690508083019250505050505050919291929050505061139a565b005b6106716004803603602081101561065b57600080fd5b81019080803590602001909291905050506117be565b6040518082815260200191505060405180910390f35b6106ea6004803603608081101561069d57600080fd5b8101908080608001906004806020026040519081016040528092919082600460200280828437600081840152601f19601f820116905080830192505050505050919291929050505061188f565b6040518082600b60200280838360005b838110156107155780820151818401526020810190506106fa565b5050505090500191505060405180910390f35b61075e6004803603604081101561073e57600080fd5b810190808035906020019092919080359060200190929190505050611ade565b604051808260ff16815260200191505060405180910390f35b6107c06004803603606081101561078d57600080fd5b81019080803560ff169060200190929190803560ff169060200190929190803560ff169060200190929190505050611b14565b005b6107ee600480360360208110156107d857600080fd5b8101908080359060200190929190505050611c81565b005b6108266004803603604081101561080657600080fd5b810190808035906020019092919080359060200190929190505050611d9c565b6040518082815260200191505060405180910390f35b610844611dca565b6040518082815260200191505060405180910390f35b61089c6004803603602081101561087057600080fd5b81019080803573ffffffffffffffffffffffffffffffffffffffff169060200190929190505050611dd0565b005b6108a6611f57565b005b6108d4600480360360208110156108be57600080fd5b81019080803590602001909291905050506120c7565b005b610902600480360360208110156108ec57600080fd5b8101908080359060200190929190505050612228565b604051808260ff16815260200191505060405180910390f35b61092361224f565b604051808273ffffffffffffffffffffffffffffffffffffffff16815260200191505060405180910390f35b61097b6004803603602081101561096557600080fd5b8101908080359060200190929190505050612279565b005b6109a96004803603602081101561099357600080fd5b8101908080359060200190929190505050612770565b005b6109e1600480360360408110156109c157600080fd5b810190808035906020019092919080359060200190929190505050612ae7565b6040518082815260200191505060405180910390f35b6109ff612b15565b6040518082815260200191505060405180910390f35b610a4b60048036036040811015610a2b57600080fd5b810190808035906020019092919080359060200190929190505050612b1b565b6040518082815260200191505060405180910390f35b610a8d60048036036020811015610a7757600080fd5b8101908080359060200190929190505050612bd5565b6040518082815260200191505060405180910390f35b610aab613025565b005b610b46600480360360a0811015610ac357600080fd5b81019080803573ffffffffffffffffffffffffffffffffffffffff169060200190929190803573ffffffffffffffffffffffffffffffffffffffff16906020019092919080359060200190929190803560ff169060200190929190803573ffffffffffffffffffffffffffffffffffffffff169060200190929190505050613375565b005b610b506135de565b60405180821515815260200191505060405180910390f35b610b7061360f565b6040518082815260200191505060405180910390f35b610b8e613615565b604051808273ffffffffffffffffffffffffffffffffffffffff16815260200191505060405180910390f35b610bfc60048036036020811015610bd057600080fd5b81019080803573ffffffffffffffffffffffffffffffffffffffff16906020019092919050505061363b565b005b610c06613830565b604051808273ffffffffffffffffffffffffffffffffffffffff16815260200191505060405180910390f35b606660009054906101000a900473ffffffffffffffffffffffffffffffffffffffff1681565b610c606135de565b15610cd3576040517f08c379a00000000000000000000000000000000000000000000000000000000081526004018080602001828103825260178152602001807f6472617765642c2063616e206e6f7420627579206e6f7700000000000000000081525060200191505060405180910390fd5b607460009054906101000a900460ff1615610d56576040517f08c379a00000000000000000000000000000000000000000000000000000000081526004018080602001828103825260188152602001807f64726177696e672c2063616e206e6f7420627579206e6f77000000000000000081525060200191505060405180910390fd5b606954821015610dce576040517f08c379a00000000000000000000000000000000000000000000000000000000081526004018080602001828103825260198152602001807f7072696365206d7573742061626f7665206d696e50726963650000000000000081525060200191505060405180910390fd5b6000610dda8383613856565b9050610e2b333085606660009054906101000a900473ffffffffffffffffffffffffffffffffffffffff1673ffffffffffffffffffffffffffffffffffffffff16613c16909392919063ffffffff16565b3373ffffffffffffffffffffffffffffffffffffffff167fe3d4187f6ca4248660cc0ac8b8056515bac4a8132be2eca31d6d0cc170722a7e826040518082815260200191505060405180910390a2505050565b60725481565b60715481565b606860009054906101000a900473ffffffffffffffffffffffffffffffffffffffff1673ffffffffffffffffffffffffffffffffffffffff163373ffffffffffffffffffffffffffffffffffffffff1614610f4d576040517f08c379a000000000000000000000000000000000000000000000000000000000815260040180806020018281038252600b8152602001807f61646d696e3a207775743f00000000000000000000000000000000000000000081525060200191505060405180910390fd5b610f556135de565b15610fc8576040517f08c379a00000000000000000000000000000000000000000000000000000000081526004018080602001828103825260068152602001807f647261776564000000000000000000000000000000000000000000000000000081525060200191505060405180910390fd5b6001607460006101000a81548160ff021916908315150217905550565b606e6020528160005260406000208181548110610ffe57fe5b90600052602060002001600091509150505481565b61101b6135de565b1561108e576040517f08c379a00000000000000000000000000000000000000000000000000000000081526004018080602001828103825260178152602001807f6472617765642c2063616e206e6f7420627579206e6f7700000000000000000081525060200191505060405180910390fd5b606954821015611106576040517f08c379a00000000000000000000000000000000000000000000000000000000081526004018080602001828103825260198152602001807f7072696365206d7573742061626f7665206d696e50726963650000000000000081525060200191505060405180910390fd5b6000805b8251811015611153576111308484838151811061112357fe5b6020026020010151613856565b506111448483613cd790919063ffffffff16565b9150808060010191505061110a565b506111a3333083606660009054906101000a900473ffffffffffffffffffffffffffffffffffffffff1673ffffffffffffffffffffffffffffffffffffffff16613c16909392919063ffffffff16565b3373ffffffffffffffffffffffffffffffffffffffff167f96c35ad1cc1743f26cb87980c38042de8082358ec6d171a7986d6e11dddfe857826040518082815260200191505060405180910390a2505050565b606d602052816000526040600020602052806000526040600020600091509150505481565b606860009054906101000a900473ffffffffffffffffffffffffffffffffffffffff1673ffffffffffffffffffffffffffffffffffffffff163373ffffffffffffffffffffffffffffffffffffffff16146112de576040517f08c379a000000000000000000000000000000000000000000000000000000000815260040180806020018281038252600b8152602001807f61646d696e3a207775743f00000000000000000000000000000000000000000081525060200191505060405180910390fd5b80606860146101000a81548160ff021916908360ff1602179055503373ffffffffffffffffffffffffffffffffffffffff167f506d53b52bc18bc1700b98da33af73e7e3ac7eab9dc8ccdc73f311b91e17443f82604051808260ff16815260200191505060405180910390a250565b606860149054906101000a900460ff1681565b607460009054906101000a900460ff1681565b6073816004811061138057fe5b60209182820401919006915054906101000a900460ff1681565b6000805b825181101561168957606760009054906101000a900473ffffffffffffffffffffffffffffffffffffffff1673ffffffffffffffffffffffffffffffffffffffff16636352211e8483815181106113f157fe5b60200260200101516040518263ffffffff1660e01b81526004018082815260200191505060206040518083038186803b15801561142d57600080fd5b505afa158015611441573d6000803e3d6000fd5b505050506040513d602081101561145757600080fd5b810190808051906020019092919050505073ffffffffffffffffffffffffffffffffffffffff163373ffffffffffffffffffffffffffffffffffffffff1614611508576040517f08c379a000000000000000000000000000000000000000000000000000000000815260040180806020018281038252600e8152602001807f6e6f742066726f6d206f776e657200000000000000000000000000000000000081525060200191505060405180910390fd5b606760009054906101000a900473ffffffffffffffffffffffffffffffffffffffff1673ffffffffffffffffffffffffffffffffffffffff166336dbd2f984838151811061155257fe5b60200260200101516040518263ffffffff1660e01b81526004018082815260200191505060206040518083038186803b15801561158e57600080fd5b505afa1580156115a2573d6000803e3d6000fd5b505050506040513d60208110156115b857600080fd5b81019080805190602001909291905050501561163c576040517f08c379a00000000000000000000000000000000000000000000000000000000081526004018080602001828103825260078152602001807f636c61696d65640000000000000000000000000000000000000000000000000081525060200191505060405180910390fd5b600061165a84838151811061164d57fe5b6020026020010151612bd5565b9050600081111561167b576116788382613cd790919063ffffffff16565b92505b50808060010191505061139e565b50606760009054906101000a900473ffffffffffffffffffffffffffffffffffffffff1673ffffffffffffffffffffffffffffffffffffffff166374310355836040518263ffffffff1660e01b81526004018080602001828103825283818151815260200191508051906020019060200280838360005b8381101561171b578082015181840152602081019050611700565b5050505090500192505050600060405180830381600087803b15801561174057600080fd5b505af1158015611754573d6000803e3d6000fd5b50505050600081111561176c5761176b3382613d5f565b5b3373ffffffffffffffffffffffffffffffffffffffff167f6606374655494f5c0e2d6f392656e9777afd9ac5f61527d1bcad50b7e918a03e826040518082815260200191505060405180910390a25050565b6000606f54821115611838576040517f08c379a00000000000000000000000000000000000000000000000000000000081526004018080602001828103825260198152602001807f5f6973737565496e646578203c3d206973737565496e6465780000000000000081525060200191505060405180910390fd5b6118406135de565b15801561184e5750606f5482145b1561185d57607154905061188a565b606c600083815260200190815260200160002060008154811061187c57fe5b906000526020600020015490505b919050565b611897615224565b6000826003600481106118a657fe5b60200201516008846002600481106118ba57fe5b602002015160ff16901b6010856001600481106118d357fe5b602002015160ff16901b6018866000600481106118ec57fe5b602002015160ff16901b01010160ff169050611906615224565b81816000600b811061191457fe5b602002019063ffffffff16908163ffffffff168152505062ffffff8216816001600b811061193e57fe5b602002019063ffffffff16908163ffffffff168152505063ff00ffff8216816002600b811061196957fe5b602002019063ffffffff16908163ffffffff168152505063ffff00ff8216816003600b811061199457fe5b602002019063ffffffff16908163ffffffff168152505063ffffff008216816004600b81106119bf57fe5b602002019063ffffffff16908163ffffffff168152505061ffff8216816005600b81106119e857fe5b602002019063ffffffff16908163ffffffff168152505062ff00ff8216816006600b8110611a1257fe5b602002019063ffffffff16908163ffffffff168152505062ffff008216816007600b8110611a3c57fe5b602002019063ffffffff16908163ffffffff168152505063ff0000ff8216816008600b8110611a6757fe5b602002019063ffffffff16908163ffffffff168152505063ff00ff008216816009600b8110611a9257fe5b602002019063ffffffff16908163ffffffff168152505063ffff0000821681600a600b8110611abd57fe5b602002019063ffffffff16908163ffffffff16815250508092505050919050565b606a6020528160005260406000208160048110611af757fe5b60209182820401919006915091509054906101000a900460ff1681565b606860009054906101000a900473ffffffffffffffffffffffffffffffffffffffff1673ffffffffffffffffffffffffffffffffffffffff163373ffffffffffffffffffffffffffffffffffffffff1614611bd7576040517f08c379a000000000000000000000000000000000000000000000000000000000815260040180806020018281038252600b8152602001807f61646d696e3a207775743f00000000000000000000000000000000000000000081525060200191505060405180910390fd5b60405180606001604052808460ff1660ff1681526020018360ff1660ff1681526020018260ff1660ff168152506065906003611c14929190615247565b503373ffffffffffffffffffffffffffffffffffffffff167f084866ac1c2208396290fe35a38f78993aa38fa5f458ad832d768e4ac6d18fa3848484604051808460ff1681526020018360ff1681526020018260ff168152602001935050505060405180910390a2505050565b606860009054906101000a900473ffffffffffffffffffffffffffffffffffffffff1673ffffffffffffffffffffffffffffffffffffffff163373ffffffffffffffffffffffffffffffffffffffff1614611d44576040517f08c379a000000000000000000000000000000000000000000000000000000000815260040180806020018281038252600b8152602001807f61646d696e3a207775743f00000000000000000000000000000000000000000081525060200191505060405180910390fd5b806069819055503373ffffffffffffffffffffffffffffffffffffffff167f84cb1bb9f2cf0bbe5de6714c4b085e5ace133558133f8ea973b7b3177996ce81826040518082815260200191505060405180910390a250565b606b6020528160005260406000208181548110611db557fe5b90600052602060002001600091509150505481565b606f5481565b611dd8613fd8565b73ffffffffffffffffffffffffffffffffffffffff16611df661224f565b73ffffffffffffffffffffffffffffffffffffffff1614611e7f576040517f08c379a00000000000000000000000000000000000000000000000000000000081526004018080602001828103825260208152602001807f4f776e61626c653a2063616c6c6572206973206e6f7420746865206f776e657281525060200191505060405180910390fd5b600073ffffffffffffffffffffffffffffffffffffffff168173ffffffffffffffffffffffffffffffffffffffff161415611eb957600080fd5b80606860006101000a81548173ffffffffffffffffffffffffffffffffffffffff021916908373ffffffffffffffffffffffffffffffffffffffff1602179055508073ffffffffffffffffffffffffffffffffffffffff163373ffffffffffffffffffffffffffffffffffffffff167f848ac24ab84501710d6631faab117b66b79aba7ec6f7778cf3bcff428c1a4efc60405160405180910390a350565b611f5f613fd8565b73ffffffffffffffffffffffffffffffffffffffff16611f7d61224f565b73ffffffffffffffffffffffffffffffffffffffff1614612006576040517f08c379a00000000000000000000000000000000000000000000000000000000081526004018080602001828103825260208152602001807f4f776e61626c653a2063616c6c6572206973206e6f7420746865206f776e657281525060200191505060405180910390fd5b600073ffffffffffffffffffffffffffffffffffffffff16603360009054906101000a900473ffffffffffffffffffffffffffffffffffffffff1673ffffffffffffffffffffffffffffffffffffffff167f8be0079c531659141344cd1fd0a4f28419497f9722a3daafe3b4186f6b6457e060405160405180910390a36000603360006101000a81548173ffffffffffffffffffffffffffffffffffffffff021916908373ffffffffffffffffffffffffffffffffffffffff160217905550565b606860009054906101000a900473ffffffffffffffffffffffffffffffffffffffff1673ffffffffffffffffffffffffffffffffffffffff163373ffffffffffffffffffffffffffffffffffffffff161461218a576040517f08c379a000000000000000000000000000000000000000000000000000000000815260040180806020018281038252600b8152602001807f61646d696e3a207775743f00000000000000000000000000000000000000000081525060200191505060405180910390fd5b6121d73382606660009054906101000a900473ffffffffffffffffffffffffffffffffffffffff1673ffffffffffffffffffffffffffffffffffffffff16613fe09092919063ffffffff16565b3373ffffffffffffffffffffffffffffffffffffffff167f050d1c64cc22ce461b9bc14f6b73852566da02b03c155242bc63169d1fec42aa826040518082815260200191505060405180910390a250565b6065816003811061223557fe5b60209182820401919006915054906101000a900460ff1681565b6000603360009054906101000a900473ffffffffffffffffffffffffffffffffffffffff16905090565b606860009054906101000a900473ffffffffffffffffffffffffffffffffffffffff1673ffffffffffffffffffffffffffffffffffffffff163373ffffffffffffffffffffffffffffffffffffffff161461233c576040517f08c379a000000000000000000000000000000000000000000000000000000000815260040180806020018281038252600b8152602001807f61646d696e3a207775743f00000000000000000000000000000000000000000081525060200191505060405180910390fd5b6123446135de565b156123b7576040517f08c379a00000000000000000000000000000000000000000000000000000000081526004018080602001828103825260068152602001807f72657365743f000000000000000000000000000000000000000000000000000081525060200191505060405180910390fd5b607460009054906101000a900460ff16612439576040517f08c379a00000000000000000000000000000000000000000000000000000000081526004018080602001828103825260198152602001807f656e7465722064726177696e672070686173652066697273740000000000000081525060200191505060405180910390fd5b6000806000606860149054906101000a900460ff16905060006001430340905060005b600a81101561247e57612470606f546117be565b50808060010191505061245c565b5060005a9050816070548288604051602001808581526020018481526020018381526020018281526020019450505050506040516020818303038152906040528051906020012094508460001c935060018385060193508360736000600481106124e457fe5b602091828204019190066101000a81548160ff021916908360ff160217905550816071548288604051602001808581526020018481526020018381526020018281526020019450505050506040516020818303038152906040528051906020012094508460001c9350600183850601935083607360016004811061256457fe5b602091828204019190066101000a81548160ff021916908360ff160217905550816072548288604051602001808581526020018481526020018381526020018281526020019450505050506040516020818303038152906040528051906020012094508460001c935060018385060193508360736002600481106125e457fe5b602091828204019190066101000a81548160ff021916908360ff1602179055508181876040516020018084815260200183815260200182815260200193505050506040516020818303038152906040528051906020012094508460001c9350600183850601935083607360036004811061265a57fe5b602091828204019190066101000a81548160ff021916908360ff1602179055506073606a6000606f54815260200190815260200160002090600461269f9291906152e1565b506126a8614082565b606c6000606f5481526020019081526020016000209060046126cb92919061532c565b506000607460006101000a81548160ff021916908315150217905550606f547fa13e935b188993737b3009d62bd916dcbe9e82d8236d75981eeadf26a1460d3d607360405180826004801561275b576020028201916000905b82829054906101000a900460ff1660ff16815260200190600101906020826000010492830192600103820291508084116127245790505b505091505060405180910390a2505050505050565b606760009054906101000a900473ffffffffffffffffffffffffffffffffffffffff1673ffffffffffffffffffffffffffffffffffffffff16636352211e826040518263ffffffff1660e01b81526004018082815260200191505060206040518083038186803b1580156127e357600080fd5b505afa1580156127f7573d6000803e3d6000fd5b505050506040513d602081101561280d57600080fd5b810190808051906020019092919050505073ffffffffffffffffffffffffffffffffffffffff163373ffffffffffffffffffffffffffffffffffffffff16146128be576040517f08c379a000000000000000000000000000000000000000000000000000000000815260040180806020018281038252600e8152602001807f6e6f742066726f6d206f776e657200000000000000000000000000000000000081525060200191505060405180910390fd5b606760009054906101000a900473ffffffffffffffffffffffffffffffffffffffff1673ffffffffffffffffffffffffffffffffffffffff166336dbd2f9826040518263ffffffff1660e01b81526004018082815260200191505060206040518083038186803b15801561293157600080fd5b505afa158015612945573d6000803e3d6000fd5b505050506040513d602081101561295b57600080fd5b8101908080519060200190929190505050156129df576040517f08c379a00000000000000000000000000000000000000000000000000000000081526004018080602001828103825260078152602001807f636c61696d65640000000000000000000000000000000000000000000000000081525060200191505060405180910390fd5b60006129ea82612bd5565b9050606760009054906101000a900473ffffffffffffffffffffffffffffffffffffffff1673ffffffffffffffffffffffffffffffffffffffff1663ae169a50836040518263ffffffff1660e01b815260040180828152602001915050600060405180830381600087803b158015612a6157600080fd5b505af1158015612a75573d6000803e3d6000fd5b505050506000811115612a8d57612a8c3382613d5f565b5b3373ffffffffffffffffffffffffffffffffffffffff167f34fcbac0073d7c3d388e51312faf357774904998eeb8fca628b9e6f65ee1cbf78383604051808381526020018281526020019250505060405180910390a25050565b606c6020528160005260406000208181548110612b0057fe5b90600052602060002001600091509150505481565b60705481565b600060028210158015612b2f575060048211155b612ba1576040517f08c379a00000000000000000000000000000000000000000000000000000000081526004018080602001828103825260208152602001807f6765744d61746368696e67526577617264416d6f756e743a20494e56414c494481525060200191505060405180910390fd5b606c60008481526020019081526020016000208260050381548110612bc257fe5b9060005260206000200154905092915050565b600080606760009054906101000a900473ffffffffffffffffffffffffffffffffffffffff1673ffffffffffffffffffffffffffffffffffffffff16631bf1e00f846040518263ffffffff1660e01b81526004018082815260200191505060206040518083038186803b158015612c4b57600080fd5b505afa158015612c5f573d6000803e3d6000fd5b505050506040513d6020811015612c7557600080fd5b81019080805190602001909291905050509050612c90615379565b606760009054906101000a900473ffffffffffffffffffffffffffffffffffffffff1673ffffffffffffffffffffffffffffffffffffffff16635f8e26a7856040518263ffffffff1660e01b81526004018082815260200191505060806040518083038186803b158015612d0357600080fd5b505afa158015612d17573d6000803e3d6000fd5b505050506040513d601f19601f820116820180604052506080811015612d3c57600080fd5b81019080919050509050612d4e615379565b606a6000848152602001908152602001600020600480602002604051908101604052809291908260048015612dbe576020028201916000905b82829054906101000a900460ff1660ff1681526020019060010190602082600001049283019260010382029150808411612d875790505b50505050509050600081600060048110612dd457fe5b602002015160ff161415612e50576040517f08c379a000000000000000000000000000000000000000000000000000000000815260040180806020018281038252600a8152602001807f6e6f74206472617765640000000000000000000000000000000000000000000081525060200191505060405180910390fd5b6000805b6004811015612e9f57838160048110612e6957fe5b602002015160ff16838260048110612e7d57fe5b602002015160ff161415612e92576001820191505b8080600101915050612e54565b5060006001821115613001576000606760009054906101000a900473ffffffffffffffffffffffffffffffffffffffff1673ffffffffffffffffffffffffffffffffffffffff1663f7a0c0ca896040518263ffffffff1660e01b81526004018082815260200191505060206040518083038186803b158015612f2057600080fd5b505afa158015612f34573d6000803e3d6000fd5b505050506040513d6020811015612f4a57600080fd5b810190808051906020019092919050505090506000612fb56064612fa760658760040360038110612f7757fe5b602091828204019190069054906101000a900460ff1660ff16612f998b6117be565b61456890919063ffffffff16565b6145ee90919063ffffffff16565b9050612ffc612fc48886612b1b565b612fee83612fe064e8d4a510008761456890919063ffffffff16565b61456890919063ffffffff16565b6145ee90919063ffffffff16565b925050505b61301964e8d4a51000826145ee90919063ffffffff16565b95505050505050919050565b606860009054906101000a900473ffffffffffffffffffffffffffffffffffffffff1673ffffffffffffffffffffffffffffffffffffffff163373ffffffffffffffffffffffffffffffffffffffff16146130e8576040517f08c379a000000000000000000000000000000000000000000000000000000000815260040180806020018281038252600b8152602001807f61646d696e3a207775743f00000000000000000000000000000000000000000081525060200191505060405180910390fd5b6130f06135de565b613162576040517f08c379a00000000000000000000000000000000000000000000000000000000081526004018080602001828103825260078152602001807f6472617765643f0000000000000000000000000000000000000000000000000081525060200191505060405180910390fd5b42607281905550600060708190555060006071819055506000607360006004811061318957fe5b602091828204019190066101000a81548160ff021916908360ff160217905550600060736001600481106131b957fe5b602091828204019190066101000a81548160ff021916908360ff160217905550600060736002600481106131e957fe5b602091828204019190066101000a81548160ff021916908360ff1602179055506000607360036004811061321957fe5b602091828204019190066101000a81548160ff021916908360ff1602179055506000607460006101000a81548160ff0219169083151502179055506001606f5401606f8190555060006132726001606f54036004612b1b565b14156133445760006132d360646132c5606560006003811061329057fe5b602091828204019190069054906101000a900460ff1660ff166132b76001606f54036117be565b61456890919063ffffffff16565b6145ee90919063ffffffff16565b9050613342816075600480602002604051908101604052809291908260048015613338576020028201916000905b82829054906101000a900460ff1660ff16815260200190600101906020826000010492830192600103820291508084116133015790505b5050505050614638565b505b606f547f01c3cbb0d62726ab09d163873ebf9aed99dd8dc08e57bc938f458132fd178cf660405160405180910390a2565b600060019054906101000a900460ff16806133945750613393614925565b5b806133aa575060008054906101000a900460ff16155b6133ff576040517f08c379a000000000000000000000000000000000000000000000000000000000815260040180806020018281038252602e815260200180615453602e913960400191505060405180910390fd5b60008060019054906101000a900460ff16159050801561344f576001600060016101000a81548160ff02191690831515021790555060016000806101000a81548160ff0219169083151502179055505b600073ffffffffffffffffffffffffffffffffffffffff168273ffffffffffffffffffffffffffffffffffffffff16141561348957600080fd5b85606660006101000a81548173ffffffffffffffffffffffffffffffffffffffff021916908373ffffffffffffffffffffffffffffffffffffffff16021790555084606760006101000a81548173ffffffffffffffffffffffffffffffffffffffff021916908373ffffffffffffffffffffffffffffffffffffffff1602179055508360698190555082606860146101000a81548160ff021916908360ff16021790555081606860006101000a81548173ffffffffffffffffffffffffffffffffffffffff021916908373ffffffffffffffffffffffffffffffffffffffff160217905550426072819055506040518060600160405280603c60ff168152602001601460ff168152602001600a60ff1681525060659060036135ac929190615247565b506135b5614936565b80156135d65760008060016101000a81548160ff0219169083151502179055505b505050505050565b60008060736000600481106135ef57fe5b602091828204019190069054906101000a900460ff1660ff161415905090565b60695481565b606760009054906101000a900473ffffffffffffffffffffffffffffffffffffffff1681565b613643613fd8565b73ffffffffffffffffffffffffffffffffffffffff1661366161224f565b73ffffffffffffffffffffffffffffffffffffffff16146136ea576040517f08c379a00000000000000000000000000000000000000000000000000000000081526004018080602001828103825260208152602001807f4f776e61626c653a2063616c6c6572206973206e6f7420746865206f776e657281525060200191505060405180910390fd5b600073ffffffffffffffffffffffffffffffffffffffff168173ffffffffffffffffffffffffffffffffffffffff161415613770576040517f08c379a000000000000000000000000000000000000000000000000000000000815260040180806020018281038252602681526020018061542d6026913960400191505060405180910390fd5b8073ffffffffffffffffffffffffffffffffffffffff16603360009054906101000a900473ffffffffffffffffffffffffffffffffffffffff1673ffffffffffffffffffffffffffffffffffffffff167f8be0079c531659141344cd1fd0a4f28419497f9722a3daafe3b4186f6b6457e060405160405180910390a380603360006101000a81548173ffffffffffffffffffffffffffffffffffffffff021916908373ffffffffffffffffffffffffffffffffffffffff16021790555050565b606860009054906101000a900473ffffffffffffffffffffffffffffffffffffffff1681565b600080600090505b600481101561390f57606860149054906101000a900460ff1660ff1683826004811061388657fe5b602002015160ff161115613902576040517f08c379a000000000000000000000000000000000000000000000000000000000815260040180806020018281038252600a8152602001807f626164206e756d6265720000000000000000000000000000000000000000000081525060200191505060405180910390fd5b808060010191505061385e565b506000606760009054906101000a900473ffffffffffffffffffffffffffffffffffffffff1673ffffffffffffffffffffffffffffffffffffffff166337391c00338587606f546040518563ffffffff1660e01b8152600401808573ffffffffffffffffffffffffffffffffffffffff16815260200184600460200280838360005b838110156139ac578082015181840152602081019050613991565b50505050905001838152602001828152602001945050505050602060405180830381600087803b1580156139df57600080fd5b505af11580156139f3573d6000803e3d6000fd5b505050506040513d6020811015613a0957600080fd5b81019080805190602001909291905050509050606b6000606f5481526020019081526020016000208190806001815401808255809150506001900390600052602060002001600090919091909150556000606e60003373ffffffffffffffffffffffffffffffffffffffff1673ffffffffffffffffffffffffffffffffffffffff168152602001908152602001600020805490501415613ab0576001607054016070819055505b606e60003373ffffffffffffffffffffffffffffffffffffffff1673ffffffffffffffffffffffffffffffffffffffff168152602001908152602001600020819080600181540180825580915050600190039060005260206000200160009091909190915055613b2b84607154613cd790919063ffffffff16565b60718190555042607281905550613b40615224565b613b498461188f565b905060005b600b60ff16811015613c0a57613bb386606d6000606f54815260200190815260200160002060008585600b8110613b8157fe5b602002015163ffffffff1667ffffffffffffffff16815260200190815260200160002054613cd790919063ffffffff16565b606d6000606f54815260200190815260200160002060008484600b8110613bd657fe5b602002015163ffffffff1667ffffffffffffffff168152602001908152602001600020819055508080600101915050613b4e565b50819250505092915050565b613cd1846323b872dd60e01b858585604051602401808473ffffffffffffffffffffffffffffffffffffffff1681526020018373ffffffffffffffffffffffffffffffffffffffff1681526020018281526020019350505050604051602081830303815290604052907bffffffffffffffffffffffffffffffffffffffffffffffffffffffff19166020820180517bffffffffffffffffffffffffffffffffffffffffffffffffffffffff8381831617835250505050614a44565b50505050565b600080828401905083811015613d55576040517f08c379a000000000000000000000000000000000000000000000000000000000815260040180806020018281038252601b8152602001807f536166654d6174683a206164646974696f6e206f766572666c6f77000000000081525060200191505060405180910390fd5b8091505092915050565b6000606660009054906101000a900473ffffffffffffffffffffffffffffffffffffffff1673ffffffffffffffffffffffffffffffffffffffff166370a08231306040518263ffffffff1660e01b8152600401808273ffffffffffffffffffffffffffffffffffffffff16815260200191505060206040518083038186803b158015613dea57600080fd5b505afa158015613dfe573d6000803e3d6000fd5b505050506040513d6020811015613e1457600080fd5b8101908080519060200190929190505050905080821115613f0357606660009054906101000a900473ffffffffffffffffffffffffffffffffffffffff1673ffffffffffffffffffffffffffffffffffffffff1663a9059cbb84836040518363ffffffff1660e01b8152600401808373ffffffffffffffffffffffffffffffffffffffff16815260200182815260200192505050602060405180830381600087803b158015613ec257600080fd5b505af1158015613ed6573d6000803e3d6000fd5b505050506040513d6020811015613eec57600080fd5b810190808051906020019092919050505050613fd3565b606660009054906101000a900473ffffffffffffffffffffffffffffffffffffffff1673ffffffffffffffffffffffffffffffffffffffff1663a9059cbb84846040518363ffffffff1660e01b8152600401808373ffffffffffffffffffffffffffffffffffffffff16815260200182815260200192505050602060405180830381600087803b158015613f9657600080fd5b505af1158015613faa573d6000803e3d6000fd5b505050506040513d6020811015613fc057600080fd5b8101908080519060200190929190505050505b505050565b600033905090565b61407d8363a9059cbb60e01b8484604051602401808373ffffffffffffffffffffffffffffffffffffffff16815260200182815260200192505050604051602081830303815290604052907bffffffffffffffffffffffffffffffffffffffffffffffffffffffff19166020820180517bffffffffffffffffffffffffffffffffffffffffffffffffffffffff8381831617835250505050614a44565b505050565b61408a61539b565b614092615224565b6140fe60736004806020026040519081016040528092919082600480156140f4576020028201916000905b82829054906101000a900460ff1660ff16815260200190600101906020826000010492830192600103820291508084116140bd5790505b505050505061188f565b90506000606d6000606f5481526020019081526020016000206000836000600b811061412657fe5b602002015163ffffffff1667ffffffffffffffff1681526020019081526020016000205490506000606d6000606f5481526020019081526020016000206000846001600b811061417257fe5b602002015163ffffffff1667ffffffffffffffff1681526020019081526020016000205490506141f2606d6000606f5481526020019081526020016000206000856002600b81106141bf57fe5b602002015163ffffffff1667ffffffffffffffff1681526020019081526020016000205482613cd790919063ffffffff16565b905061424e606d6000606f5481526020019081526020016000206000856003600b811061421b57fe5b602002015163ffffffff1667ffffffffffffffff1681526020019081526020016000205482613cd790919063ffffffff16565b90506142aa606d6000606f5481526020019081526020016000206000856004600b811061427757fe5b602002015163ffffffff1667ffffffffffffffff1681526020019081526020016000205482613cd790919063ffffffff16565b90506142d26142c360048461456890919063ffffffff16565b82614b3390919063ffffffff16565b90506000606d6000606f5481526020019081526020016000206000856005600b81106142fa57fe5b602002015163ffffffff1667ffffffffffffffff16815260200190815260200160002054905061437a606d6000606f5481526020019081526020016000206000866006600b811061434757fe5b602002015163ffffffff1667ffffffffffffffff1681526020019081526020016000205482613cd790919063ffffffff16565b90506143d6606d6000606f5481526020019081526020016000206000866007600b81106143a357fe5b602002015163ffffffff1667ffffffffffffffff1681526020019081526020016000205482613cd790919063ffffffff16565b9050614432606d6000606f5481526020019081526020016000206000866008600b81106143ff57fe5b602002015163ffffffff1667ffffffffffffffff1681526020019081526020016000205482613cd790919063ffffffff16565b905061448e606d6000606f5481526020019081526020016000206000866009600b811061445b57fe5b602002015163ffffffff1667ffffffffffffffff1681526020019081526020016000205482613cd790919063ffffffff16565b90506144ea606d6000606f548152602001908152602001600020600086600a600b81106144b757fe5b602002015163ffffffff1667ffffffffffffffff1681526020019081526020016000205482613cd790919063ffffffff16565b905061451261450360038461456890919063ffffffff16565b82614b3390919063ffffffff16565b905061453a61452b60068561456890919063ffffffff16565b82614b3390919063ffffffff16565b9050604051806080016040528060715481526020018481526020018381526020018281525094505050505090565b60008083141561457b57600090506145e8565b600082840290508284828161458c57fe5b04146145e3576040517f08c379a00000000000000000000000000000000000000000000000000000000081526004018080602001828103825260218152602001806154816021913960400191505060405180910390fd5b809150505b92915050565b600061463083836040518060400160405280601a81526020017f536166654d6174683a206469766973696f6e206279207a65726f000000000000815250614b7d565b905092915050565b6146406135de565b156146b3576040517f08c379a00000000000000000000000000000000000000000000000000000000081526004018080602001828103825260178152602001807f6472617765642c2063616e206e6f7420627579206e6f7700000000000000000081525060200191505060405180910390fd5b60005b600481101561476757606860149054906101000a900460ff1660ff168282600481106146de57fe5b602002015160ff16111561475a576040517f08c379a00000000000000000000000000000000000000000000000000000000081526004018080602001828103825260128152602001807f65786365656420746865206d6178696d756d000000000000000000000000000081525060200191505060405180910390fd5b80806001019150506146b6565b506000606760009054906101000a900473ffffffffffffffffffffffffffffffffffffffff1673ffffffffffffffffffffffffffffffffffffffff166337391c00308486606f546040518563ffffffff1660e01b8152600401808573ffffffffffffffffffffffffffffffffffffffff16815260200184600460200280838360005b838110156148045780820151818401526020810190506147e9565b50505050905001838152602001828152602001945050505050602060405180830381600087803b15801561483757600080fd5b505af115801561484b573d6000803e3d6000fd5b505050506040513d602081101561486157600080fd5b81019080805190602001909291905050509050606b6000606f5481526020019081526020016000208190806001815401808255809150506001900390600052602060002001600090919091909150556148c583607154613cd790919063ffffffff16565b607181905550426072819055503073ffffffffffffffffffffffffffffffffffffffff167fe3d4187f6ca4248660cc0ac8b8056515bac4a8132be2eca31d6d0cc170722a7e826040518082815260200191505060405180910390a2505050565b600061493030614c43565b15905090565b600060019054906101000a900460ff16806149555750614954614925565b5b8061496b575060008054906101000a900460ff16155b6149c0576040517f08c379a000000000000000000000000000000000000000000000000000000000815260040180806020018281038252602e815260200180615453602e913960400191505060405180910390fd5b60008060019054906101000a900460ff161590508015614a10576001600060016101000a81548160ff02191690831515021790555060016000806101000a81548160ff0219169083151502179055505b614a18614c56565b614a20614d54565b8015614a415760008060016101000a81548160ff0219169083151502179055505b50565b6060614aa6826040518060400160405280602081526020017f5361666542455032303a206c6f772d6c6576656c2063616c6c206661696c65648152508573ffffffffffffffffffffffffffffffffffffffff16614efb9092919063ffffffff16565b9050600081511115614b2e57808060200190516020811015614ac757600080fd5b8101908080519060200190929190505050614b2d576040517f08c379a000000000000000000000000000000000000000000000000000000000815260040180806020018281038252602a815260200180615403602a913960400191505060405180910390fd5b5b505050565b6000614b7583836040518060400160405280601e81526020017f536166654d6174683a207375627472616374696f6e206f766572666c6f770000815250614f13565b905092915050565b60008083118290614c29576040517f08c379a00000000000000000000000000000000000000000000000000000000081526004018080602001828103825283818151815260200191508051906020019080838360005b83811015614bee578082015181840152602081019050614bd3565b50505050905090810190601f168015614c1b5780820380516001836020036101000a031916815260200191505b509250505060405180910390fd5b506000838581614c3557fe5b049050809150509392505050565b600080823b905060008111915050919050565b600060019054906101000a900460ff1680614c755750614c74614925565b5b80614c8b575060008054906101000a900460ff16155b614ce0576040517f08c379a000000000000000000000000000000000000000000000000000000000815260040180806020018281038252602e815260200180615453602e913960400191505060405180910390fd5b60008060019054906101000a900460ff161590508015614d30576001600060016101000a81548160ff02191690831515021790555060016000806101000a81548160ff0219169083151502179055505b8015614d515760008060016101000a81548160ff0219169083151502179055505b50565b600060019054906101000a900460ff1680614d735750614d72614925565b5b80614d89575060008054906101000a900460ff16155b614dde576040517f08c379a000000000000000000000000000000000000000000000000000000000815260040180806020018281038252602e815260200180615453602e913960400191505060405180910390fd5b60008060019054906101000a900460ff161590508015614e2e576001600060016101000a81548160ff02191690831515021790555060016000806101000a81548160ff0219169083151502179055505b6000614e38613fd8565b905080603360006101000a81548173ffffffffffffffffffffffffffffffffffffffff021916908373ffffffffffffffffffffffffffffffffffffffff1602179055508073ffffffffffffffffffffffffffffffffffffffff16600073ffffffffffffffffffffffffffffffffffffffff167f8be0079c531659141344cd1fd0a4f28419497f9722a3daafe3b4186f6b6457e060405160405180910390a3508015614ef85760008060016101000a81548160ff0219169083151502179055505b50565b6060614f0a8484600085614fd3565b90509392505050565b6000838311158290614fc0576040517f08c379a00000000000000000000000000000000000000000000000000000000081526004018080602001828103825283818151815260200191508051906020019080838360005b83811015614f85578082015181840152602081019050614f6a565b50505050905090810190601f168015614fb25780820380516001836020036101000a031916815260200191505b509250505060405180910390fd5b5060008385039050809150509392505050565b6060614fde856151d9565b615050576040517f08c379a000000000000000000000000000000000000000000000000000000000815260040180806020018281038252601d8152602001807f416464726573733a2063616c6c20746f206e6f6e2d636f6e747261637400000081525060200191505060405180910390fd5b600060608673ffffffffffffffffffffffffffffffffffffffff1685876040518082805190602001908083835b602083106150a0578051825260208201915060208101905060208303925061507d565b6001836020036101000a03801982511681845116808217855250505050505090500191505060006040518083038185875af1925050503d8060008114615102576040519150601f19603f3d011682016040523d82523d6000602084013e615107565b606091505b5091509150811561511c5780925050506151d1565b60008151111561512f5780518082602001fd5b836040517f08c379a00000000000000000000000000000000000000000000000000000000081526004018080602001828103825283818151815260200191508051906020019080838360005b8381101561519657808201518184015260208101905061517b565b50505050905090810190601f1680156151c35780820380516001836020036101000a031916815260200191505b509250505060405180910390fd5b949350505050565b60008060007fc5d2460186f7233c927e7db2dcc703c0e500b653ca82273b7bfad8045d85a47060001b9050833f915080821415801561521b57506000801b8214155b92505050919050565b604051806101600160405280600b90602082028036833780820191505090505090565b826003601f016020900481019282156152d05791602002820160005b838211156152a157835183826101000a81548160ff021916908360ff1602179055509260200192600101602081600001049283019260010302615263565b80156152ce5782816101000a81549060ff02191690556001016020816000010492830192600103026152a1565b505b5090506152dd91906153bd565b5090565b826004601f0160209004810192821561531b5791601f016020900482015b8281111561531a5782548255916001019190600101906152ff565b5b50905061532891906153bd565b5090565b828054828255906000526020600020908101928215615368579160200282015b8281111561536757825182559160200191906001019061534c565b5b50905061537591906153e5565b5090565b6040518060800160405280600490602082028036833780820191505090505090565b6040518060800160405280600490602082028036833780820191505090505090565b5b808211156153e157600081816101000a81549060ff0219169055506001016153be565b5090565b5b808211156153fe5760008160009055506001016153e6565b509056fe5361666542455032303a204245503230206f7065726174696f6e20646964206e6f7420737563636565644f776e61626c653a206e6577206f776e657220697320746865207a65726f2061646472657373496e697469616c697a61626c653a20636f6e747261637420697320616c726561647920696e697469616c697a6564536166654d6174683a206d756c7469706c69636174696f6e206f766572666c6f77a264697066735822122032116e84489304f18c1e6dbd3148dbc02e9b8e36991aaf2f9266db0ee049f56f64736f6c634300060c0033",
  "linkReferences": {},
  "deployedLinkReferences": {}
}