{
  "_format": "hh-sol-artifact-1",
  "contractName": "LotteryNFT",
  "sourceName": "contracts/lottery/LotteryNFT.sol",
  "abi": [
    {
      "inputs": [],
      "stateMutability": "nonpayable",
      "type": "constructor"
    },
    {
      "anonymous": false,
      "inputs": [
        {
          "indexed": true,
          "internalType": "address",
          "name": "owner",
          "type": "address"
        },
        {
          "indexed": true,
          "internalType": "address",
          "name": "approved",
          "type": "address"
        },
        {
          "indexed": true,
          "internalType": "uint256",
          "name": "tokenId",
          "type": "uint256"
        }
      ],
      "name": "Approval",
      "type": "event"
    },
    {
      "anonymous": false,
      "inputs": [
        {
          "indexed": true,
          "internalType": "address",
          "name": "owner",
          "type": "address"
        },
        {
          "indexed": true,
          "internalType": "address",
          "name": "operator",
          "type": "address"
        },
        {
          "indexed": false,
          "internalType": "bool",
          "name": "approved",
          "type": "bool"
        }
      ],
      "name": "ApprovalForAll",
      "type": "event"
    },
    {
      "anonymous": false,
      "inputs": [
        {
          "indexed": true,
          "internalType": "address",
          "name": "previousOwner",
          "type": "address"
        },
        {
          "indexed": true,
          "internalType": "address",
          "name": "newOwner",
          "type": "address"
        }
      ],
      "name": "OwnershipTransferred",
      "type": "event"
    },
    {
      "anonymous": false,
      "inputs": [
        {
          "indexed": true,
          "internalType": "address",
          "name": "from",
          "type": "address"
        },
        {
          "indexed": true,
          "internalType": "address",
          "name": "to",
          "type": "address"
        },
        {
          "indexed": true,
          "internalType": "uint256",
          "name": "tokenId",
          "type": "uint256"
        }
      ],
      "name": "Transfer",
      "type": "event"
    },
    {
      "inputs": [
        {
          "internalType": "address",
          "name": "to",
          "type": "address"
        },
        {
          "internalType": "uint256",
          "name": "tokenId",
          "type": "uint256"
        }
      ],
      "name": "approve",
      "outputs": [],
      "stateMutability": "nonpayable",
      "type": "function"
    },
    {
      "inputs": [
        {
          "internalType": "address",
          "name": "owner",
          "type": "address"
        }
      ],
      "name": "balanceOf",
      "outputs": [
        {
          "internalType": "uint256",
          "name": "",
          "type": "uint256"
        }
      ],
      "stateMutability": "view",
      "type": "function"
    },
    {
      "inputs": [],
      "name": "baseURI",
      "outputs": [
        {
          "internalType": "string",
          "name": "",
          "type": "string"
        }
      ],
      "stateMutability": "view",
      "type": "function"
    },
    {
      "inputs": [
        {
          "internalType": "uint256",
          "name": "tokenId",
          "type": "uint256"
        }
      ],
      "name": "burn",
      "outputs": [],
      "stateMutability": "nonpayable",
      "type": "function"
    },
    {
      "inputs": [
        {
          "internalType": "uint256",
          "name": "",
          "type": "uint256"
        }
      ],
      "name": "claimInfo",
      "outputs": [
        {
          "internalType": "bool",
          "name": "",
          "type": "bool"
        }
      ],
      "stateMutability": "view",
      "type": "function"
    },
    {
      "inputs": [
        {
          "internalType": "uint256",
          "name": "tokenId",
          "type": "uint256"
        }
      ],
      "name": "claimReward",
      "outputs": [],
      "stateMutability": "nonpayable",
      "type": "function"
    },
    {
      "inputs": [
        {
          "internalType": "uint256",
          "name": "tokenId",
          "type": "uint256"
        }
      ],
      "name": "getApproved",
      "outputs": [
        {
          "internalType": "address",
          "name": "",
          "type": "address"
        }
      ],
      "stateMutability": "view",
      "type": "function"
    },
    {
      "inputs": [
        {
          "internalType": "uint256",
          "name": "tokenId",
          "type": "uint256"
        }
      ],
      "name": "getClaimStatus",
      "outputs": [
        {
          "internalType": "bool",
          "name": "",
          "type": "bool"
        }
      ],
      "stateMutability": "view",
      "type": "function"
    },
    {
      "inputs": [
        {
          "internalType": "uint256",
          "name": "tokenId",
          "type": "uint256"
        }
      ],
      "name": "getLotteryAmount",
      "outputs": [
        {
          "internalType": "uint256",
          "name": "",
          "type": "uint256"
        }
      ],
      "stateMutability": "view",
      "type": "function"
    },
    {
      "inputs": [
        {
          "internalType": "uint256",
          "name": "tokenId",
          "type": "uint256"
        }
      ],
      "name": "getLotteryIssueIndex",
      "outputs": [
        {
          "internalType": "uint256",
          "name": "",
          "type": "uint256"
        }
      ],
      "stateMutability": "view",
      "type": "function"
    },
    {
      "inputs": [
        {
          "internalType": "uint256",
          "name": "tokenId",
          "type": "uint256"
        }
      ],
      "name": "getLotteryNumbers",
      "outputs": [
        {
          "internalType": "uint8[4]",
          "name": "",
          "type": "uint8[4]"
        }
      ],
      "stateMutability": "view",
      "type": "function"
    },
    {
      "inputs": [
        {
          "internalType": "address",
          "name": "owner",
          "type": "address"
        },
        {
          "internalType": "address",
          "name": "operator",
          "type": "address"
        }
      ],
      "name": "isApprovedForAll",
      "outputs": [
        {
          "internalType": "bool",
          "name": "",
          "type": "bool"
        }
      ],
      "stateMutability": "view",
      "type": "function"
    },
    {
      "inputs": [
        {
          "internalType": "uint256",
          "name": "",
          "type": "uint256"
        }
      ],
      "name": "issueIndex",
      "outputs": [
        {
          "internalType": "uint256",
          "name": "",
          "type": "uint256"
        }
      ],
      "stateMutability": "view",
      "type": "function"
    },
    {
      "inputs": [
        {
          "internalType": "uint256",
          "name": "",
          "type": "uint256"
        }
      ],
      "name": "lotteryAmount",
      "outputs": [
        {
          "internalType": "uint256",
          "name": "",
          "type": "uint256"
        }
      ],
      "stateMutability": "view",
      "type": "function"
    },
    {
      "inputs": [
        {
          "internalType": "uint256",
          "name": "",
          "type": "uint256"
        },
        {
          "internalType": "uint256",
          "name": "",
          "type": "uint256"
        }
      ],
      "name": "lotteryInfo",
      "outputs": [
        {
          "internalType": "uint8",
          "name": "",
          "type": "uint8"
        }
      ],
      "stateMutability": "view",
      "type": "function"
    },
    {
      "inputs": [
        {
          "internalType": "uint256[]",
          "name": "tokenIds",
          "type": "uint256[]"
        }
      ],
      "name": "multiClaimReward",
      "outputs": [],
      "stateMutability": "nonpayable",
      "type": "function"
    },
    {
      "inputs": [],
      "name": "name",
      "outputs": [
        {
          "internalType": "string",
          "name": "",
          "type": "string"
        }
      ],
      "stateMutability": "view",
      "type": "function"
    },
    {
      "inputs": [
        {
          "internalType": "address",
          "name": "player",
          "type": "address"
        },
        {
          "internalType": "uint8[4]",
          "name": "_lotteryNumbers",
          "type": "uint8[4]"
        },
        {
          "internalType": "uint256",
          "name": "_amount",
          "type": "uint256"
        },
        {
          "internalType": "uint256",
          "name": "_issueIndex",
          "type": "uint256"
        }
      ],
      "name": "newLotteryItem",
      "outputs": [
        {
          "internalType": "uint256",
          "name": "",
          "type": "uint256"
        }
      ],
      "stateMutability": "nonpayable",
      "type": "function"
    },
    {
      "inputs": [],
      "name": "owner",
      "outputs": [
        {
          "internalType": "address",
          "name": "",
          "type": "address"
        }
      ],
      "stateMutability": "view",
      "type": "function"
    },
    {
      "inputs": [
        {
          "internalType": "uint256",
          "name": "tokenId",
          "type": "uint256"
        }
      ],
      "name": "ownerOf",
      "outputs": [
        {
          "internalType": "address",
          "name": "",
          "type": "address"
        }
      ],
      "stateMutability": "view",
      "type": "function"
    },
    {
      "inputs": [],
      "name": "renounceOwnership",
      "outputs": [],
      "stateMutability": "nonpayable",
      "type": "function"
    },
    {
      "inputs": [
        {
          "internalType": "address",
          "name": "from",
          "type": "address"
        },
        {
          "internalType": "address",
          "name": "to",
          "type": "address"
        },
        {
          "internalType": "uint256",
          "name": "tokenId",
          "type": "uint256"
        }
      ],
      "name": "safeTransferFrom",
      "outputs": [],
      "stateMutability": "nonpayable",
      "type": "function"
    },
    {
      "inputs": [
        {
          "internalType": "address",
          "name": "from",
          "type": "address"
        },
        {
          "internalType": "address",
          "name": "to",
          "type": "address"
        },
        {
          "internalType": "uint256",
          "name": "tokenId",
          "type": "uint256"
        },
        {
          "internalType": "bytes",
          "name": "_data",
          "type": "bytes"
        }
      ],
      "name": "safeTransferFrom",
      "outputs": [],
      "stateMutability": "nonpayable",
      "type": "function"
    },
    {
      "inputs": [
        {
          "internalType": "address",
          "name": "operator",
          "type": "address"
        },
        {
          "internalType": "bool",
          "name": "approved",
          "type": "bool"
        }
      ],
      "name": "setApprovalForAll",
      "outputs": [],
      "stateMutability": "nonpayable",
      "type": "function"
    },
    {
      "inputs": [
        {
          "internalType": "bytes4",
          "name": "interfaceId",
          "type": "bytes4"
        }
      ],
      "name": "supportsInterface",
      "outputs": [
        {
          "internalType": "bool",
          "name": "",
          "type": "bool"
        }
      ],
      "stateMutability": "view",
      "type": "function"
    },
    {
      "inputs": [],
      "name": "symbol",
      "outputs": [
        {
          "internalType": "string",
          "name": "",
          "type": "string"
        }
      ],
      "stateMutability": "view",
      "type": "function"
    },
    {
      "inputs": [
        {
          "internalType": "uint256",
          "name": "index",
          "type": "uint256"
        }
      ],
      "name": "tokenByIndex",
      "outputs": [
        {
          "internalType": "uint256",
          "name": "",
          "type": "uint256"
        }
      ],
      "stateMutability": "view",
      "type": "function"
    },
    {
      "inputs": [
        {
          "internalType": "address",
          "name": "owner",
          "type": "address"
        },
        {
          "internalType": "uint256",
          "name": "index",
          "type": "uint256"
        }
      ],
      "name": "tokenOfOwnerByIndex",
      "outputs": [
        {
          "internalType": "uint256",
          "name": "",
          "type": "uint256"
        }
      ],
      "stateMutability": "view",
      "type": "function"
    },
    {
      "inputs": [
        {
          "internalType": "uint256",
          "name": "tokenId",
          "type": "uint256"
        }
      ],
      "name": "tokenURI",
      "outputs": [
        {
          "internalType": "string",
          "name": "",
          "type": "string"
        }
      ],
      "stateMutability": "view",
      "type": "function"
    },
    {
      "inputs": [],
      "name": "totalSupply",
      "outputs": [
        {
          "internalType": "uint256",
          "name": "",
          "type": "uint256"
        }
      ],
      "stateMutability": "view",
      "type": "function"
    },
    {
      "inputs": [
        {
          "internalType": "address",
          "name": "from",
          "type": "address"
        },
        {
          "internalType": "address",
          "name": "to",
          "type": "address"
        },
        {
          "internalType": "uint256",
          "name": "tokenId",
          "type": "uint256"
        }
      ],
      "name": "transferFrom",
      "outputs": [],
      "stateMutability": "nonpayable",
      "type": "function"
    },
    {
      "inputs": [
        {
          "internalType": "address",
          "name": "newOwner",
          "type": "address"
        }
      ],
      "name": "transferOwnership",
      "outputs": [],
      "stateMutability": "nonpayable",
      "type": "function"
    }
  ],
  "bytecode": "0x60806040523480156200001157600080fd5b506040518060400160405280601b81526020017f4c6971756964447269766572204c6f7474657279205469636b657400000000008152506040518060400160405280600381526020017f474c540000000000000000000000000000000000000000000000000000000000815250620000966301ffc9a760e01b620001c960201b60201c565b8160069080519060200190620000ae929190620002a9565b508060079080519060200190620000c7929190620002a9565b50620000e06380ac58cd60e01b620001c960201b60201c565b620000f8635b5e139f60e01b620001c960201b60201c565b6200011063780e9d6360e01b620001c960201b60201c565b5050600062000124620002a160201b60201c565b905080600a60006101000a81548173ffffffffffffffffffffffffffffffffffffffff021916908373ffffffffffffffffffffffffffffffffffffffff1602179055508073ffffffffffffffffffffffffffffffffffffffff16600073ffffffffffffffffffffffffffffffffffffffff167f8be0079c531659141344cd1fd0a4f28419497f9722a3daafe3b4186f6b6457e060405160405180910390a350620003c4565b63ffffffff60e01b817bffffffffffffffffffffffffffffffffffffffffffffffffffffffff1916141562000235576040517f08c379a00000000000000000000000000000000000000000000000000000000081526004016200022c9062000391565b60405180910390fd5b6001600080837bffffffffffffffffffffffffffffffffffffffffffffffffffffffff19167bffffffffffffffffffffffffffffffffffffffffffffffffffffffff1916815260200190815260200160002060006101000a81548160ff02191690831515021790555050565b600033905090565b828054600181600116156101000203166002900490600052602060002090601f016020900481019282601f10620002ec57805160ff19168380011785556200031d565b828001600101855582156200031d579182015b828111156200031c578251825591602001919060010190620002ff565b5b5090506200032c919062000330565b5090565b5b808211156200034b57600081600090555060010162000331565b5090565b60006200035e601c83620003b3565b91507f4552433136353a20696e76616c696420696e74657266616365206964000000006000830152602082019050919050565b60006020820190508181036000830152620003ac816200034f565b9050919050565b600082825260208201905092915050565b613fcc80620003d46000396000f3fe608060405234801561001057600080fd5b50600436106101f05760003560e01c80636352211e1161010f578063a22cb465116100a2578063c87b56dd11610071578063c87b56dd14610615578063e985e9c514610645578063f2fde38b14610675578063f7a0c0ca14610691576101f0565b8063a22cb46514610591578063ae169a50146105ad578063b88d4fde146105c9578063c13f690b146105e5576101f0565b8063715018a6116100de578063715018a61461052f57806374310355146105395780638da5cb5b1461055557806395d89b4114610573576101f0565b80636352211e146104815780636575243f146104b15780636c0360eb146104e157806370a08231146104ff576101f0565b80632f745c591161018757806342966c681161015657806342966c68146103d55780634f6ccce7146103f15780635c362233146104215780635f8e26a714610451576101f0565b80632f745c591461032957806336dbd2f91461035957806337391c001461038957806342842e0e146103b9576101f0565b8063095ea7b3116101c3578063095ea7b3146102a357806318160ddd146102bf5780631bf1e00f146102dd57806323b872dd1461030d576101f0565b806301ffc9a7146101f557806306fdde0314610225578063081812fc1461024357806308c7662514610273575b600080fd5b61020f600480360381019061020a9190612fef565b6106c1565b60405161021c91906139fc565b60405180910390f35b61022d610728565b60405161023a9190613a17565b60405180910390f35b61025d60048036038101906102589190613041565b6107ca565b60405161026a919061397a565b60405180910390f35b61028d60048036038101906102889190613041565b61084f565b60405161029a9190613c79565b60405180910390f35b6102bd60048036038101906102b89190612f72565b610867565b005b6102c761097f565b6040516102d49190613c79565b60405180910390f35b6102f760048036038101906102f29190613041565b610990565b6040516103049190613c79565b60405180910390f35b61032760048036038101906103229190612e09565b6109ad565b005b610343600480360381019061033e9190612f72565b610a0d565b6040516103509190613c79565b60405180910390f35b610373600480360381019061036e9190613041565b610a68565b60405161038091906139fc565b60405180910390f35b6103a3600480360381019061039e9190612ed3565b610a92565b6040516103b09190613c79565b60405180910390f35b6103d360048036038101906103ce9190612e09565b610bac565b005b6103ef60048036038101906103ea9190613041565b610bcc565b005b61040b60048036038101906104069190613041565b610c6f565b6040516104189190613c79565b60405180910390f35b61043b60048036038101906104369190613041565b610c92565b60405161044891906139fc565b60405180910390f35b61046b60048036038101906104669190613041565b610cb2565b60405161047891906139e1565b60405180910390f35b61049b60048036038101906104969190613041565b610d36565b6040516104a8919061397a565b60405180910390f35b6104cb60048036038101906104c6919061306a565b610d6d565b6040516104d89190613c94565b60405180910390f35b6104e9610da3565b6040516104f69190613a17565b60405180910390f35b61051960048036038101906105149190612da4565b610e45565b6040516105269190613c79565b60405180910390f35b610537610f04565b005b610553600480360381019061054e9190612fae565b61105c565b005b61055d61114f565b60405161056a919061397a565b60405180910390f35b61057b611179565b6040516105889190613a17565b60405180910390f35b6105ab60048036038101906105a69190612f36565b61121b565b005b6105c760048036038101906105c29190613041565b61139c565b005b6105e360048036038101906105de9190612e58565b611462565b005b6105ff60048036038101906105fa9190613041565b6114c4565b60405161060c9190613c79565b60405180910390f35b61062f600480360381019061062a9190613041565b6114dc565b60405161063c9190613a17565b60405180910390f35b61065f600480360381019061065a9190612dcd565b611667565b60405161066c91906139fc565b60405180910390f35b61068f600480360381019061068a9190612da4565b6116fb565b005b6106ab60048036038101906106a69190613041565b6118c2565b6040516106b89190613c79565b60405180910390f35b6000806000837bffffffffffffffffffffffffffffffffffffffffffffffffffffffff19167bffffffffffffffffffffffffffffffffffffffffffffffffffffffff1916815260200190815260200160002060009054906101000a900460ff169050919050565b606060068054600181600116156101000203166002900480601f0160208091040260200160405190810160405280929190818152602001828054600181600116156101000203166002900480156107c05780601f10610795576101008083540402835291602001916107c0565b820191906000526020600020905b8154815290600101906020018083116107a357829003601f168201915b5050505050905090565b60006107d5826118df565b610814576040517f08c379a000000000000000000000000000000000000000000000000000000000815260040161080b90613b99565b60405180910390fd5b6004600083815260200190815260200160002060009054906101000a900473ffffffffffffffffffffffffffffffffffffffff169050919050565b600e6020528060005260406000206000915090505481565b600061087282610d36565b90508073ffffffffffffffffffffffffffffffffffffffff168373ffffffffffffffffffffffffffffffffffffffff1614156108e3576040517f08c379a00000000000000000000000000000000000000000000000000000000081526004016108da90613c19565b60405180910390fd5b8073ffffffffffffffffffffffffffffffffffffffff166109026118fc565b73ffffffffffffffffffffffffffffffffffffffff16148061093157506109308161092b6118fc565b611667565b5b610970576040517f08c379a000000000000000000000000000000000000000000000000000000000815260040161096790613b19565b60405180910390fd5b61097a8383611904565b505050565b600061098b60026119bd565b905090565b6000600e6000838152602001908152602001600020549050919050565b6109be6109b86118fc565b826119d2565b6109fd576040517f08c379a00000000000000000000000000000000000000000000000000000000081526004016109f490613c39565b60405180910390fd5b610a08838383611ab0565b505050565b6000610a6082600160008673ffffffffffffffffffffffffffffffffffffffff1673ffffffffffffffffffffffffffffffffffffffff168152602001908152602001600020611cc790919063ffffffff16565b905092915050565b6000600f600083815260200190815260200160002060009054906101000a900460ff169050919050565b6000610a9c6118fc565b73ffffffffffffffffffffffffffffffffffffffff16600a60009054906101000a900473ffffffffffffffffffffffffffffffffffffffff1673ffffffffffffffffffffffffffffffffffffffff1614610b2b576040517f08c379a0000000000000000000000000000000000000000000000000000000008152600401610b2290613bb9565b60405180910390fd5b610b35600b611ce1565b6000610b41600b611cf7565b9050610b4d8682611d05565b84600c6000838152602001908152602001600020906004610b6f929190612a92565b5083600d60008381526020019081526020016000208190555082600e60008381526020019081526020016000208190555080915050949350505050565b610bc783838360405180602001604052806000815250611462565b505050565b610bd46118fc565b73ffffffffffffffffffffffffffffffffffffffff16600a60009054906101000a900473ffffffffffffffffffffffffffffffffffffffff1673ffffffffffffffffffffffffffffffffffffffff1614610c63576040517f08c379a0000000000000000000000000000000000000000000000000000000008152600401610c5a90613bb9565b60405180910390fd5b610c6c81611e93565b50565b600080610c86836002611fcd90919063ffffffff16565b50905080915050919050565b600f6020528060005260406000206000915054906101000a900460ff1681565b610cba612b2c565b600c6000838152602001908152602001600020600480602002604051908101604052809291908260048015610d2a576020028201916000905b82829054906101000a900460ff1660ff1681526020019060010190602082600001049283019260010382029150808411610cf35790505b50505050509050919050565b6000610d6682604051806060016040528060298152602001613f6e602991396002611ff99092919063ffffffff16565b9050919050565b600c6020528160005260406000208160048110610d8657fe5b60209182820401919006915091509054906101000a900460ff1681565b606060098054600181600116156101000203166002900480601f016020809104026020016040519081016040528092919081815260200182805460018160011615610100020316600290048015610e3b5780601f10610e1057610100808354040283529160200191610e3b565b820191906000526020600020905b815481529060010190602001808311610e1e57829003601f168201915b5050505050905090565b60008073ffffffffffffffffffffffffffffffffffffffff168273ffffffffffffffffffffffffffffffffffffffff161415610eb6576040517f08c379a0000000000000000000000000000000000000000000000000000000008152600401610ead90613b39565b60405180910390fd5b610efd600160008473ffffffffffffffffffffffffffffffffffffffff1673ffffffffffffffffffffffffffffffffffffffff168152602001908152602001600020612018565b9050919050565b610f0c6118fc565b73ffffffffffffffffffffffffffffffffffffffff16600a60009054906101000a900473ffffffffffffffffffffffffffffffffffffffff1673ffffffffffffffffffffffffffffffffffffffff1614610f9b576040517f08c379a0000000000000000000000000000000000000000000000000000000008152600401610f9290613bb9565b60405180910390fd5b600073ffffffffffffffffffffffffffffffffffffffff16600a60009054906101000a900473ffffffffffffffffffffffffffffffffffffffff1673ffffffffffffffffffffffffffffffffffffffff167f8be0079c531659141344cd1fd0a4f28419497f9722a3daafe3b4186f6b6457e060405160405180910390a36000600a60006101000a81548173ffffffffffffffffffffffffffffffffffffffff021916908373ffffffffffffffffffffffffffffffffffffffff160217905550565b6110646118fc565b73ffffffffffffffffffffffffffffffffffffffff16600a60009054906101000a900473ffffffffffffffffffffffffffffffffffffffff1673ffffffffffffffffffffffffffffffffffffffff16146110f3576040517f08c379a00000000000000000000000000000000000000000000000000000000081526004016110ea90613bb9565b60405180910390fd5b60005b815181101561114b576001600f600084848151811061111157fe5b6020026020010151815260200190815260200160002060006101000a81548160ff02191690831515021790555080806001019150506110f6565b5050565b6000600a60009054906101000a900473ffffffffffffffffffffffffffffffffffffffff16905090565b606060078054600181600116156101000203166002900480601f0160208091040260200160405190810160405280929190818152602001828054600181600116156101000203166002900480156112115780601f106111e657610100808354040283529160200191611211565b820191906000526020600020905b8154815290600101906020018083116111f457829003601f168201915b5050505050905090565b6112236118fc565b73ffffffffffffffffffffffffffffffffffffffff168273ffffffffffffffffffffffffffffffffffffffff161415611291576040517f08c379a000000000000000000000000000000000000000000000000000000000815260040161128890613ad9565b60405180910390fd5b806005600061129e6118fc565b73ffffffffffffffffffffffffffffffffffffffff1673ffffffffffffffffffffffffffffffffffffffff16815260200190815260200160002060008473ffffffffffffffffffffffffffffffffffffffff1673ffffffffffffffffffffffffffffffffffffffff16815260200190815260200160002060006101000a81548160ff0219169083151502179055508173ffffffffffffffffffffffffffffffffffffffff1661134b6118fc565b73ffffffffffffffffffffffffffffffffffffffff167f17307eab39ab6107e8899845ad3d59bd9653f200f220920489ca2b5937696c318360405161139091906139fc565b60405180910390a35050565b6113a46118fc565b73ffffffffffffffffffffffffffffffffffffffff16600a60009054906101000a900473ffffffffffffffffffffffffffffffffffffffff1673ffffffffffffffffffffffffffffffffffffffff1614611433576040517f08c379a000000000000000000000000000000000000000000000000000000000815260040161142a90613bb9565b60405180910390fd5b6001600f600083815260200190815260200160002060006101000a81548160ff02191690831515021790555050565b61147361146d6118fc565b836119d2565b6114b2576040517f08c379a00000000000000000000000000000000000000000000000000000000081526004016114a990613c39565b60405180910390fd5b6114be8484848461202d565b50505050565b600d6020528060005260406000206000915090505481565b60606114e7826118df565b611526576040517f08c379a000000000000000000000000000000000000000000000000000000000815260040161151d90613bf9565b60405180910390fd5b6060600860008481526020019081526020016000208054600181600116156101000203166002900480601f0160208091040260200160405190810160405280929190818152602001828054600181600116156101000203166002900480156115cf5780601f106115a4576101008083540402835291602001916115cf565b820191906000526020600020905b8154815290600101906020018083116115b257829003601f168201915b505050505090506000600980546001816001161561010002031660029004905014156115fe5780915050611662565b6000815111156116335760098160405160200161161c929190613956565b604051602081830303815290604052915050611662565b600961163e84612089565b60405160200161164f929190613956565b6040516020818303038152906040529150505b919050565b6000600560008473ffffffffffffffffffffffffffffffffffffffff1673ffffffffffffffffffffffffffffffffffffffff16815260200190815260200160002060008373ffffffffffffffffffffffffffffffffffffffff1673ffffffffffffffffffffffffffffffffffffffff16815260200190815260200160002060009054906101000a900460ff16905092915050565b6117036118fc565b73ffffffffffffffffffffffffffffffffffffffff16600a60009054906101000a900473ffffffffffffffffffffffffffffffffffffffff1673ffffffffffffffffffffffffffffffffffffffff1614611792576040517f08c379a000000000000000000000000000000000000000000000000000000000815260040161178990613bb9565b60405180910390fd5b600073ffffffffffffffffffffffffffffffffffffffff168173ffffffffffffffffffffffffffffffffffffffff161415611802576040517f08c379a00000000000000000000000000000000000000000000000000000000081526004016117f990613a79565b60405180910390fd5b8073ffffffffffffffffffffffffffffffffffffffff16600a60009054906101000a900473ffffffffffffffffffffffffffffffffffffffff1673ffffffffffffffffffffffffffffffffffffffff167f8be0079c531659141344cd1fd0a4f28419497f9722a3daafe3b4186f6b6457e060405160405180910390a380600a60006101000a81548173ffffffffffffffffffffffffffffffffffffffff021916908373ffffffffffffffffffffffffffffffffffffffff16021790555050565b6000600d6000838152602001908152602001600020549050919050565b60006118f58260026121d090919063ffffffff16565b9050919050565b600033905090565b816004600083815260200190815260200160002060006101000a81548173ffffffffffffffffffffffffffffffffffffffff021916908373ffffffffffffffffffffffffffffffffffffffff160217905550808273ffffffffffffffffffffffffffffffffffffffff1661197783610d36565b73ffffffffffffffffffffffffffffffffffffffff167f8c5be1e5ebec7d5bd14f71427d1e84f3dd0314c0f7b2291e5b200ac8c7c3b92560405160405180910390a45050565b60006119cb826000016121ea565b9050919050565b60006119dd826118df565b611a1c576040517f08c379a0000000000000000000000000000000000000000000000000000000008152600401611a1390613af9565b60405180910390fd5b6000611a2783610d36565b90508073ffffffffffffffffffffffffffffffffffffffff168473ffffffffffffffffffffffffffffffffffffffff161480611a9657508373ffffffffffffffffffffffffffffffffffffffff16611a7e846107ca565b73ffffffffffffffffffffffffffffffffffffffff16145b80611aa75750611aa68185611667565b5b91505092915050565b8273ffffffffffffffffffffffffffffffffffffffff16611ad082610d36565b73ffffffffffffffffffffffffffffffffffffffff1614611b26576040517f08c379a0000000000000000000000000000000000000000000000000000000008152600401611b1d90613bd9565b60405180910390fd5b600073ffffffffffffffffffffffffffffffffffffffff168273ffffffffffffffffffffffffffffffffffffffff161415611b96576040517f08c379a0000000000000000000000000000000000000000000000000000000008152600401611b8d90613ab9565b60405180910390fd5b611ba18383836121fb565b611bac600082611904565b611bfd81600160008673ffffffffffffffffffffffffffffffffffffffff1673ffffffffffffffffffffffffffffffffffffffff16815260200190815260200160002061220090919063ffffffff16565b50611c4f81600160008573ffffffffffffffffffffffffffffffffffffffff1673ffffffffffffffffffffffffffffffffffffffff16815260200190815260200160002061221a90919063ffffffff16565b50611c66818360026122349092919063ffffffff16565b50808273ffffffffffffffffffffffffffffffffffffffff168473ffffffffffffffffffffffffffffffffffffffff167fddf252ad1be2c89b69c2b068fc378daa952ba7f163c4a11628f55a4df523b3ef60405160405180910390a4505050565b6000611cd68360000183612269565b60001c905092915050565b6001816000016000828254019250508190555050565b600081600001549050919050565b600073ffffffffffffffffffffffffffffffffffffffff168273ffffffffffffffffffffffffffffffffffffffff161415611d75576040517f08c379a0000000000000000000000000000000000000000000000000000000008152600401611d6c90613b79565b60405180910390fd5b611d7e816118df565b15611dbe576040517f08c379a0000000000000000000000000000000000000000000000000000000008152600401611db590613a99565b60405180910390fd5b611dca600083836121fb565b611e1b81600160008573ffffffffffffffffffffffffffffffffffffffff1673ffffffffffffffffffffffffffffffffffffffff16815260200190815260200160002061221a90919063ffffffff16565b50611e32818360026122349092919063ffffffff16565b50808273ffffffffffffffffffffffffffffffffffffffff16600073ffffffffffffffffffffffffffffffffffffffff167fddf252ad1be2c89b69c2b068fc378daa952ba7f163c4a11628f55a4df523b3ef60405160405180910390a45050565b6000611e9e82610d36565b9050611eac816000846121fb565b611eb7600083611904565b60006008600084815260200190815260200160002080546001816001161561010002031660029004905014611f0657600860008381526020019081526020016000206000611f059190612b4e565b5b611f5782600160008473ffffffffffffffffffffffffffffffffffffffff1673ffffffffffffffffffffffffffffffffffffffff16815260200190815260200160002061220090919063ffffffff16565b50611f6c8260026122d690919063ffffffff16565b5081600073ffffffffffffffffffffffffffffffffffffffff168273ffffffffffffffffffffffffffffffffffffffff167fddf252ad1be2c89b69c2b068fc378daa952ba7f163c4a11628f55a4df523b3ef60405160405180910390a45050565b600080600080611fe086600001866122f0565b915091508160001c8160001c9350935050509250929050565b600061200c846000018460001b84612373565b60001c90509392505050565b600061202682600001612404565b9050919050565b612038848484611ab0565b61204484848484612415565b612083576040517f08c379a000000000000000000000000000000000000000000000000000000000815260040161207a90613a59565b60405180910390fd5b50505050565b606060008214156120d1576040518060400160405280600181526020017f300000000000000000000000000000000000000000000000000000000000000081525090506121cb565b600082905060005b600082146120fb578080600101915050600a82816120f357fe5b0491506120d9565b60608167ffffffffffffffff8111801561211457600080fd5b506040519080825280601f01601f1916602001820160405280156121475781602001600182028036833780820191505090505b50905060006001830390508593505b600084146121c357600a848161216857fe5b0660300160f81b8282806001900393508151811061218257fe5b60200101907effffffffffffffffffffffffffffffffffffffffffffffffffffffffffffff1916908160001a905350600a84816121bb57fe5b049350612156565b819450505050505b919050565b60006121e2836000018360001b612579565b905092915050565b600081600001805490509050919050565b505050565b6000612212836000018360001b61259c565b905092915050565b600061222c836000018360001b612684565b905092915050565b6000612260846000018460001b8473ffffffffffffffffffffffffffffffffffffffff1660001b6126f4565b90509392505050565b6000818360000180549050116122b4576040517f08c379a00000000000000000000000000000000000000000000000000000000081526004016122ab90613a39565b60405180910390fd5b8260000182815481106122c357fe5b9060005260206000200154905092915050565b60006122e8836000018360001b6127d0565b905092915050565b6000808284600001805490501161233c576040517f08c379a000000000000000000000000000000000000000000000000000000000815260040161233390613b59565b60405180910390fd5b600084600001848154811061234d57fe5b906000526020600020906002020190508060000154816001015492509250509250929050565b600080846001016000858152602001908152602001600020549050600081141583906123d5576040517f08c379a00000000000000000000000000000000000000000000000000000000081526004016123cc9190613a17565b60405180910390fd5b508460000160018203815481106123e857fe5b9060005260206000209060020201600101549150509392505050565b600081600001805490509050919050565b60006124368473ffffffffffffffffffffffffffffffffffffffff166128e9565b6124435760019050612571565b606061250a63150b7a0260e01b6124586118fc565b88878760405160240161246e9493929190613995565b604051602081830303815290604052907bffffffffffffffffffffffffffffffffffffffffffffffffffffffff19166020820180517bffffffffffffffffffffffffffffffffffffffffffffffffffffffff8381831617835250505050604051806060016040528060328152602001613f3c603291398773ffffffffffffffffffffffffffffffffffffffff166129349092919063ffffffff16565b90506000818060200190518101906125229190613018565b905063150b7a0260e01b7bffffffffffffffffffffffffffffffffffffffffffffffffffffffff1916817bffffffffffffffffffffffffffffffffffffffffffffffffffffffff191614925050505b949350505050565b600080836001016000848152602001908152602001600020541415905092915050565b6000808360010160008481526020019081526020016000205490506000811461267857600060018203905060006001866000018054905003905060008660000182815481106125e757fe5b906000526020600020015490508087600001848154811061260457fe5b906000526020600020018190555060018301876001016000838152602001908152602001600020819055508660000180548061263c57fe5b6001900381819060005260206000200160009055905586600101600087815260200190815260200160002060009055600194505050505061267e565b60009150505b92915050565b6000612690838361294c565b6126e95782600001829080600181540180825580915050600190039060005260206000200160009091909190915055826000018054905083600101600084815260200190815260200160002081905550600190506126ee565b600090505b92915050565b600080846001016000858152602001908152602001600020549050600081141561279b578460000160405180604001604052808681526020018581525090806001815401808255809150506001900390600052602060002090600202016000909190919091506000820151816000015560208201518160010155505084600001805490508560010160008681526020019081526020016000208190555060019150506127c9565b828560000160018303815481106127ae57fe5b90600052602060002090600202016001018190555060009150505b9392505050565b600080836001016000848152602001908152602001600020549050600081146128dd576000600182039050600060018660000180549050039050600086600001828154811061281b57fe5b906000526020600020906002020190508087600001848154811061283b57fe5b906000526020600020906002020160008201548160000155600182015481600101559050506001830187600101600083600001548152602001908152602001600020819055508660000180548061288e57fe5b60019003818190600052602060002090600202016000808201600090556001820160009055505090558660010160008781526020019081526020016000206000905560019450505050506128e3565b60009150505b92915050565b60008060007fc5d2460186f7233c927e7db2dcc703c0e500b653ca82273b7bfad8045d85a47060001b9050833f915080821415801561292b57506000801b8214155b92505050919050565b6060612943848460008561296f565b90509392505050565b600080836001016000848152602001908152602001600020541415905092915050565b606061297a856128e9565b6129b9576040517f08c379a00000000000000000000000000000000000000000000000000000000081526004016129b090613c59565b60405180910390fd5b600060608673ffffffffffffffffffffffffffffffffffffffff1685876040516129e3919061393f565b60006040518083038185875af1925050503d8060008114612a20576040519150601f19603f3d011682016040523d82523d6000602084013e612a25565b606091505b50915091508115612a3a578092505050612a8a565b600081511115612a4d5780518082602001fd5b836040517f08c379a0000000000000000000000000000000000000000000000000000000008152600401612a819190613a17565b60405180910390fd5b949350505050565b826004601f01602090048101928215612b1b5791602002820160005b83821115612aec57835183826101000a81548160ff021916908360ff1602179055509260200192600101602081600001049283019260010302612aae565b8015612b195782816101000a81549060ff0219169055600101602081600001049283019260010302612aec565b505b509050612b289190612b96565b5090565b6040518060800160405280600490602082028036833780820191505090505090565b50805460018160011615610100020316600290046000825580601f10612b745750612b93565b601f016020900490600052602060002090810190612b929190612bbe565b5b50565b5b80821115612bba57600081816101000a81549060ff021916905550600101612b97565b5090565b5b80821115612bd7576000816000905550600101612bbf565b5090565b600081359050612bea81613ec8565b92915050565b600082601f830112612c0157600080fd5b8135612c14612c0f82613cdc565b613caf565b91508181835260208401935060208101905083856020840282011115612c3957600080fd5b60005b83811015612c695781612c4f8882612d7a565b845260208401935060208301925050600181019050612c3c565b5050505092915050565b600082601f830112612c8457600080fd5b6004612c97612c9282613d04565b613caf565b91508183856020840282011115612cad57600080fd5b60005b83811015612cdd5781612cc38882612d8f565b845260208401935060208301925050600181019050612cb0565b5050505092915050565b600081359050612cf681613edf565b92915050565b600081359050612d0b81613ef6565b92915050565b600081519050612d2081613ef6565b92915050565b600082601f830112612d3757600080fd5b8135612d4a612d4582613d26565b613caf565b91508082526020830160208301858383011115612d6657600080fd5b612d71838284613e75565b50505092915050565b600081359050612d8981613f0d565b92915050565b600081359050612d9e81613f24565b92915050565b600060208284031215612db657600080fd5b6000612dc484828501612bdb565b91505092915050565b60008060408385031215612de057600080fd5b6000612dee85828601612bdb565b9250506020612dff85828601612bdb565b9150509250929050565b600080600060608486031215612e1e57600080fd5b6000612e2c86828701612bdb565b9350506020612e3d86828701612bdb565b9250506040612e4e86828701612d7a565b9150509250925092565b60008060008060808587031215612e6e57600080fd5b6000612e7c87828801612bdb565b9450506020612e8d87828801612bdb565b9350506040612e9e87828801612d7a565b925050606085013567ffffffffffffffff811115612ebb57600080fd5b612ec787828801612d26565b91505092959194509250565b60008060008060e08587031215612ee957600080fd5b6000612ef787828801612bdb565b9450506020612f0887828801612c73565b93505060a0612f1987828801612d7a565b92505060c0612f2a87828801612d7a565b91505092959194509250565b60008060408385031215612f4957600080fd5b6000612f5785828601612bdb565b9250506020612f6885828601612ce7565b9150509250929050565b60008060408385031215612f8557600080fd5b6000612f9385828601612bdb565b9250506020612fa485828601612d7a565b9150509250929050565b600060208284031215612fc057600080fd5b600082013567ffffffffffffffff811115612fda57600080fd5b612fe684828501612bf0565b91505092915050565b60006020828403121561300157600080fd5b600061300f84828501612cfc565b91505092915050565b60006020828403121561302a57600080fd5b600061303884828501612d11565b91505092915050565b60006020828403121561305357600080fd5b600061306184828501612d7a565b91505092915050565b6000806040838503121561307d57600080fd5b600061308b85828601612d7a565b925050602061309c85828601612d7a565b9150509250929050565b60006130b28383613921565b60208301905092915050565b6130c781613df4565b82525050565b6130d681613de2565b82525050565b6130e581613d71565b6130ef8184613d9f565b92506130fa82613d52565b8060005b8381101561312b57815161311287826130a6565b965061311d83613d92565b9250506001810190506130fe565b505050505050565b61313c81613e06565b82525050565b600061314d82613d7c565b6131578185613daa565b9350613167818560208601613e84565b61317081613eb7565b840191505092915050565b600061318682613d7c565b6131908185613dbb565b93506131a0818560208601613e84565b80840191505092915050565b60006131b782613d87565b6131c18185613dc6565b93506131d1818560208601613e84565b6131da81613eb7565b840191505092915050565b60006131f082613d87565b6131fa8185613dd7565b935061320a818560208601613e84565b80840191505092915050565b60008154600181166000811461323357600181146132585761329c565b607f60028304166132448187613dd7565b955060ff198316865280860193505061329c565b600282046132668187613dd7565b955061327185613d5c565b60005b8281101561329357815481890152600182019150602081019050613274565b82880195505050505b505092915050565b60006132b1602283613dc6565b91507f456e756d657261626c655365743a20696e646578206f7574206f6620626f756e60008301527f64730000000000000000000000000000000000000000000000000000000000006020830152604082019050919050565b6000613317603283613dc6565b91507f4552433732313a207472616e7366657220746f206e6f6e20455243373231526560008301527f63656976657220696d706c656d656e74657200000000000000000000000000006020830152604082019050919050565b600061337d602683613dc6565b91507f4f776e61626c653a206e6577206f776e657220697320746865207a65726f206160008301527f64647265737300000000000000000000000000000000000000000000000000006020830152604082019050919050565b60006133e3601c83613dc6565b91507f4552433732313a20746f6b656e20616c7265616479206d696e746564000000006000830152602082019050919050565b6000613423602483613dc6565b91507f4552433732313a207472616e7366657220746f20746865207a65726f2061646460008301527f72657373000000000000000000000000000000000000000000000000000000006020830152604082019050919050565b6000613489601983613dc6565b91507f4552433732313a20617070726f766520746f2063616c6c6572000000000000006000830152602082019050919050565b60006134c9602c83613dc6565b91507f4552433732313a206f70657261746f7220717565727920666f72206e6f6e657860008301527f697374656e7420746f6b656e00000000000000000000000000000000000000006020830152604082019050919050565b600061352f603883613dc6565b91507f4552433732313a20617070726f76652063616c6c6572206973206e6f74206f7760008301527f6e6572206e6f7220617070726f76656420666f7220616c6c00000000000000006020830152604082019050919050565b6000613595602a83613dc6565b91507f4552433732313a2062616c616e636520717565727920666f7220746865207a6560008301527f726f2061646472657373000000000000000000000000000000000000000000006020830152604082019050919050565b60006135fb602283613dc6565b91507f456e756d657261626c654d61703a20696e646578206f7574206f6620626f756e60008301527f64730000000000000000000000000000000000000000000000000000000000006020830152604082019050919050565b6000613661602083613dc6565b91507f4552433732313a206d696e7420746f20746865207a65726f20616464726573736000830152602082019050919050565b60006136a1602c83613dc6565b91507f4552433732313a20617070726f76656420717565727920666f72206e6f6e657860008301527f697374656e7420746f6b656e00000000000000000000000000000000000000006020830152604082019050919050565b6000613707602083613dc6565b91507f4f776e61626c653a2063616c6c6572206973206e6f7420746865206f776e65726000830152602082019050919050565b6000613747602983613dc6565b91507f4552433732313a207472616e73666572206f6620746f6b656e2074686174206960008301527f73206e6f74206f776e00000000000000000000000000000000000000000000006020830152604082019050919050565b60006137ad602f83613dc6565b91507f4552433732314d657461646174613a2055524920717565727920666f72206e6f60008301527f6e6578697374656e7420746f6b656e00000000000000000000000000000000006020830152604082019050919050565b6000613813602183613dc6565b91507f4552433732313a20617070726f76616c20746f2063757272656e74206f776e6560008301527f72000000000000000000000000000000000000000000000000000000000000006020830152604082019050919050565b6000613879603183613dc6565b91507f4552433732313a207472616e736665722063616c6c6572206973206e6f74206f60008301527f776e6572206e6f7220617070726f7665640000000000000000000000000000006020830152604082019050919050565b60006138df601d83613dc6565b91507f416464726573733a2063616c6c20746f206e6f6e2d636f6e74726163740000006000830152602082019050919050565b61391b81613e5e565b82525050565b61392a81613e68565b82525050565b61393981613e68565b82525050565b600061394b828461317b565b915081905092915050565b60006139628285613216565b915061396e82846131e5565b91508190509392505050565b600060208201905061398f60008301846130cd565b92915050565b60006080820190506139aa60008301876130be565b6139b760208301866130cd565b6139c46040830185613912565b81810360608301526139d68184613142565b905095945050505050565b60006080820190506139f660008301846130dc565b92915050565b6000602082019050613a116000830184613133565b92915050565b60006020820190508181036000830152613a3181846131ac565b905092915050565b60006020820190508181036000830152613a52816132a4565b9050919050565b60006020820190508181036000830152613a728161330a565b9050919050565b60006020820190508181036000830152613a9281613370565b9050919050565b60006020820190508181036000830152613ab2816133d6565b9050919050565b60006020820190508181036000830152613ad281613416565b9050919050565b60006020820190508181036000830152613af28161347c565b9050919050565b60006020820190508181036000830152613b12816134bc565b9050919050565b60006020820190508181036000830152613b3281613522565b9050919050565b60006020820190508181036000830152613b5281613588565b9050919050565b60006020820190508181036000830152613b72816135ee565b9050919050565b60006020820190508181036000830152613b9281613654565b9050919050565b60006020820190508181036000830152613bb281613694565b9050919050565b60006020820190508181036000830152613bd2816136fa565b9050919050565b60006020820190508181036000830152613bf28161373a565b9050919050565b60006020820190508181036000830152613c12816137a0565b9050919050565b60006020820190508181036000830152613c3281613806565b9050919050565b60006020820190508181036000830152613c528161386c565b9050919050565b60006020820190508181036000830152613c72816138d2565b9050919050565b6000602082019050613c8e6000830184613912565b92915050565b6000602082019050613ca96000830184613930565b92915050565b6000604051905081810181811067ffffffffffffffff82111715613cd257600080fd5b8060405250919050565b600067ffffffffffffffff821115613cf357600080fd5b602082029050602081019050919050565b600067ffffffffffffffff821115613d1b57600080fd5b602082029050919050565b600067ffffffffffffffff821115613d3d57600080fd5b601f19601f8301169050602081019050919050565b6000819050919050565b60008190508160005260206000209050919050565b600060049050919050565b600081519050919050565b600081519050919050565b6000602082019050919050565b600081905092915050565b600082825260208201905092915050565b600081905092915050565b600082825260208201905092915050565b600081905092915050565b6000613ded82613e3e565b9050919050565b6000613dff82613e3e565b9050919050565b60008115159050919050565b60007fffffffff0000000000000000000000000000000000000000000000000000000082169050919050565b600073ffffffffffffffffffffffffffffffffffffffff82169050919050565b6000819050919050565b600060ff82169050919050565b82818337600083830152505050565b60005b83811015613ea2578082015181840152602081019050613e87565b83811115613eb1576000848401525b50505050565b6000601f19601f8301169050919050565b613ed181613de2565b8114613edc57600080fd5b50565b613ee881613e06565b8114613ef357600080fd5b50565b613eff81613e12565b8114613f0a57600080fd5b50565b613f1681613e5e565b8114613f2157600080fd5b50565b613f2d81613e68565b8114613f3857600080fd5b5056fe4552433732313a207472616e7366657220746f206e6f6e20455243373231526563656976657220696d706c656d656e7465724552433732313a206f776e657220717565727920666f72206e6f6e6578697374656e7420746f6b656ea2646970667358221220b2e6fff6bb82d7608f26f1943bd6cce270f9f57edd7fc8ee2f365d8b1ddf394a64736f6c634300060c0033",
  "linkReferences": {},
  "deployedLinkReferences": {}
}