{
  "_format": "hh-sol-artifact-1",
  "contractName": "LiquidRouter",
  "sourceName": "contracts/LiquidRouter.sol",
  "abi": [
    {
      "inputs": [
        {
          "internalType": "address",
          "name": "tokenA",
          "type": "address"
        },
        {
          "internalType": "address",
          "name": "tokenB",
          "type": "address"
        },
        {
          "internalType": "uint256",
          "name": "amountADesired",
          "type": "uint256"
        },
        {
          "internalType": "uint256",
          "name": "amountBDesired",
          "type": "uint256"
        },
        {
          "internalType": "uint256",
          "name": "amountAMin",
          "type": "uint256"
        },
        {
          "internalType": "uint256",
          "name": "amountBMin",
          "type": "uint256"
        },
        {
          "internalType": "address",
          "name": "to",
          "type": "address"
        },
        {
          "internalType": "uint256",
          "name": "deadline",
          "type": "uint256"
        }
      ],
      "name": "addLiquidity",
      "outputs": [
        {
          "internalType": "uint256",
          "name": "amountA",
          "type": "uint256"
        },
        {
          "internalType": "uint256",
          "name": "amountB",
          "type": "uint256"
        },
        {
          "internalType": "uint256",
          "name": "liquidity",
          "type": "uint256"
        }
      ],
      "stateMutability": "nonpayable",
      "type": "function"
    },
    {
      "inputs": [
        {
          "internalType": "address",
          "name": "token",
          "type": "address"
        },
        {
          "internalType": "uint256",
          "name": "amountTokenDesired",
          "type": "uint256"
        },
        {
          "internalType": "uint256",
          "name": "amountTokenMin",
          "type": "uint256"
        },
        {
          "internalType": "uint256",
          "name": "amountETHMin",
          "type": "uint256"
        },
        {
          "internalType": "address",
          "name": "to",
          "type": "address"
        },
        {
          "internalType": "uint256",
          "name": "deadline",
          "type": "uint256"
        }
      ],
      "name": "addLiquidityETH",
      "outputs": [
        {
          "internalType": "uint256",
          "name": "amountToken",
          "type": "uint256"
        },
        {
          "internalType": "uint256",
          "name": "amountETH",
          "type": "uint256"
        },
        {
          "internalType": "uint256",
          "name": "liquidity",
          "type": "uint256"
        }
      ],
      "stateMutability": "payable",
      "type": "function"
    },
    {
      "inputs": [
        {
          "internalType": "uint256",
          "name": "amountOut",
          "type": "uint256"
        },
        {
          "internalType": "address[]",
          "name": "path",
          "type": "address[]"
        }
      ],
      "name": "getAmountsIn",
      "outputs": [
        {
          "internalType": "uint256[]",
          "name": "amounts",
          "type": "uint256[]"
        }
      ],
      "stateMutability": "view",
      "type": "function"
    },
    {
      "inputs": [],
      "name": "getFactoryAddress",
      "outputs": [
        {
          "internalType": "address",
          "name": "factory",
          "type": "address"
        }
      ],
      "stateMutability": "view",
      "type": "function"
    },
    {
      "inputs": [],
      "name": "getWETH",
      "outputs": [
        {
          "internalType": "address",
          "name": "weth",
          "type": "address"
        }
      ],
      "stateMutability": "view",
      "type": "function"
    },
    {
      "inputs": [
        {
          "internalType": "uint256",
          "name": "amountOut",
          "type": "uint256"
        },
        {
          "internalType": "address[]",
          "name": "path",
          "type": "address[]"
        },
        {
          "internalType": "address",
          "name": "to",
          "type": "address"
        },
        {
          "internalType": "uint256",
          "name": "deadline",
          "type": "uint256"
        }
      ],
      "name": "swapETHForExactTokens",
      "outputs": [
        {
          "internalType": "uint256[]",
          "name": "amounts",
          "type": "uint256[]"
        }
      ],
      "stateMutability": "payable",
      "type": "function"
    },
    {
      "stateMutability": "payable",
      "type": "receive"
    }
  ],
  "bytecode": "0x608060405234801561001057600080fd5b50610bae806100206000396000f3fe6080604052600436106100595760003560e01c80631f00ca7414610065578063a9c2e36c14610189578063cae5f11e146101ca578063e8e337001461020b578063f305d719146102f1578063fb3bdb411461039f57610060565b3661006057005b600080fd5b34801561007157600080fd5b506101326004803603604081101561008857600080fd5b8101908080359060200190929190803590602001906401000000008111156100af57600080fd5b8201836020820111156100c157600080fd5b803590602001918460208302840111640100000000831117156100e357600080fd5b919080806020026020016040519081016040528093929190818152602001838360200280828437600081840152601f19601f8201169050808301925050505050505091929192905050506104a1565b6040518080602001828103825283818151815260200191508051906020019060200280838360005b8381101561017557808201518184015260208101905061015a565b505050509050019250505060405180910390f35b34801561019557600080fd5b5061019e61062e565b604051808273ffffffffffffffffffffffffffffffffffffffff16815260200191505060405180910390f35b3480156101d657600080fd5b506101df6106ca565b604051808273ffffffffffffffffffffffffffffffffffffffff16815260200191505060405180910390f35b34801561021757600080fd5b506102cd600480360361010081101561022f57600080fd5b81019080803573ffffffffffffffffffffffffffffffffffffffff169060200190929190803573ffffffffffffffffffffffffffffffffffffffff16906020019092919080359060200190929190803590602001909291908035906020019092919080359060200190929190803573ffffffffffffffffffffffffffffffffffffffff16906020019092919080359060200190929190505050610766565b60405180848152602001838152602001828152602001935050505060405180910390f35b61037b600480360360c081101561030757600080fd5b81019080803573ffffffffffffffffffffffffffffffffffffffff169060200190929190803590602001909291908035906020019092919080359060200190929190803573ffffffffffffffffffffffffffffffffffffffff169060200190929190803590602001909291905050506108af565b60405180848152602001838152602001828152602001935050505060405180910390f35b61044a600480360360808110156103b557600080fd5b8101908080359060200190929190803590602001906401000000008111156103dc57600080fd5b8201836020820111156103ee57600080fd5b8035906020019184602083028401116401000000008311171561041057600080fd5b9091929391929390803573ffffffffffffffffffffffffffffffffffffffff169060200190929190803590602001909291905050506109d1565b6040518080602001828103825283818151815260200191508051906020019060200280838360005b8381101561048d578082015181840152602081019050610472565b505050509050019250505060405180910390f35b60607316327e3fbdaca3bcf7e38f5af2599d2ddc33ae5273ffffffffffffffffffffffffffffffffffffffff16631f00ca7484846040518363ffffffff1660e01b81526004018083815260200180602001828103825283818151815260200191508051906020019060200280838360005b8381101561052d578082015181840152602081019050610512565b50505050905001935050505060006040518083038186803b15801561055157600080fd5b505afa158015610565573d6000803e3d6000fd5b505050506040513d6000823e3d601f19601f82011682018060405250602081101561058f57600080fd5b81019080805160405193929190846401000000008211156105af57600080fd5b838201915060208201858111156105c557600080fd5b82518660208202830111640100000000821117156105e257600080fd5b8083526020830192505050908051906020019060200280838360005b838110156106195780820151818401526020810190506105fe565b50505050905001604052505050905092915050565b60007316327e3fbdaca3bcf7e38f5af2599d2ddc33ae5273ffffffffffffffffffffffffffffffffffffffff1663c45a01556040518163ffffffff1660e01b815260040160206040518083038186803b15801561068a57600080fd5b505afa15801561069e573d6000803e3d6000fd5b505050506040513d60208110156106b457600080fd5b8101908080519060200190929190505050905090565b60007316327e3fbdaca3bcf7e38f5af2599d2ddc33ae5273ffffffffffffffffffffffffffffffffffffffff1663ad5c46486040518163ffffffff1660e01b815260040160206040518083038186803b15801561072657600080fd5b505afa15801561073a573d6000803e3d6000fd5b505050506040513d602081101561075057600080fd5b8101908080519060200190929190505050905090565b60008060007316327e3fbdaca3bcf7e38f5af2599d2ddc33ae5273ffffffffffffffffffffffffffffffffffffffff1663e8e337008c8c8c8c8c8c8c8c6040518963ffffffff1660e01b8152600401808973ffffffffffffffffffffffffffffffffffffffff1681526020018873ffffffffffffffffffffffffffffffffffffffff1681526020018781526020018681526020018581526020018481526020018373ffffffffffffffffffffffffffffffffffffffff16815260200182815260200198505050505050505050606060405180830381600087803b15801561084c57600080fd5b505af1158015610860573d6000803e3d6000fd5b505050506040513d606081101561087657600080fd5b81019080805190602001909291908051906020019092919080519060200190929190505050925092509250985098509895505050505050565b60008060007316327e3fbdaca3bcf7e38f5af2599d2ddc33ae5273ffffffffffffffffffffffffffffffffffffffff1663f305d719348b8b8b8b8b8b6040518863ffffffff1660e01b8152600401808773ffffffffffffffffffffffffffffffffffffffff1681526020018681526020018581526020018481526020018373ffffffffffffffffffffffffffffffffffffffff16815260200182815260200196505050505050506060604051808303818588803b15801561096f57600080fd5b505af1158015610983573d6000803e3d6000fd5b50505050506040513d606081101561099a57600080fd5b8101908080519060200190929190805190602001909291908051906020019092919050505092509250925096509650969350505050565b60607316327e3fbdaca3bcf7e38f5af2599d2ddc33ae5273ffffffffffffffffffffffffffffffffffffffff1663fb3bdb413488888888886040518763ffffffff1660e01b815260040180868152602001806020018473ffffffffffffffffffffffffffffffffffffffff1681526020018381526020018281038252868682818152602001925060200280828437600081840152601f19601f82011690508083019250505096505050505050506000604051808303818588803b158015610a9757600080fd5b505af1158015610aab573d6000803e3d6000fd5b50505050506040513d6000823e3d601f19601f820116820180604052506020811015610ad657600080fd5b8101908080516040519392919084640100000000821115610af657600080fd5b83820191506020820185811115610b0c57600080fd5b8251866020820283011164010000000082111715610b2957600080fd5b8083526020830192505050908051906020019060200280838360005b83811015610b60578082015181840152602081019050610b45565b5050505090500160405250505090509594505050505056fea264697066735822122025d3b2d3a04a1e19476ee5ce04bcb8198f45ee976e09639aa6f94b4d9d6d2e1e64736f6c634300060c0033",
  "linkReferences": {},
  "deployedLinkReferences": {}
}