{
  "_format": "hh-sol-artifact-1",
  "contractName": "LiquidRouter",
  "sourceName": "contracts/LiquidRouter.sol",
  "abi": [
    {
      "inputs": [
        {
          "internalType": "address",
          "name": "tokenA",
          "type": "address"
        },
        {
          "internalType": "address",
          "name": "tokenB",
          "type": "address"
        },
        {
          "internalType": "uint256",
          "name": "amountADesired",
          "type": "uint256"
        },
        {
          "internalType": "uint256",
          "name": "amountBDesired",
          "type": "uint256"
        },
        {
          "internalType": "uint256",
          "name": "amountAMin",
          "type": "uint256"
        },
        {
          "internalType": "uint256",
          "name": "amountBMin",
          "type": "uint256"
        },
        {
          "internalType": "address",
          "name": "to",
          "type": "address"
        },
        {
          "internalType": "uint256",
          "name": "deadline",
          "type": "uint256"
        }
      ],
      "name": "addLiquidity",
      "outputs": [
        {
          "internalType": "uint256",
          "name": "amountA",
          "type": "uint256"
        },
        {
          "internalType": "uint256",
          "name": "amountB",
          "type": "uint256"
        },
        {
          "internalType": "uint256",
          "name": "liquidity",
          "type": "uint256"
        }
      ],
      "stateMutability": "nonpayable",
      "type": "function"
    },
    {
      "inputs": [
        {
          "internalType": "address",
          "name": "token",
          "type": "address"
        },
        {
          "internalType": "uint256",
          "name": "amountTokenDesired",
          "type": "uint256"
        },
        {
          "internalType": "uint256",
          "name": "amountTokenMin",
          "type": "uint256"
        },
        {
          "internalType": "uint256",
          "name": "amountETHMin",
          "type": "uint256"
        },
        {
          "internalType": "address",
          "name": "to",
          "type": "address"
        },
        {
          "internalType": "uint256",
          "name": "deadline",
          "type": "uint256"
        }
      ],
      "name": "addLiquidityETH",
      "outputs": [
        {
          "internalType": "uint256",
          "name": "amountToken",
          "type": "uint256"
        },
        {
          "internalType": "uint256",
          "name": "amountETH",
          "type": "uint256"
        },
        {
          "internalType": "uint256",
          "name": "liquidity",
          "type": "uint256"
        }
      ],
      "stateMutability": "payable",
      "type": "function"
    },
    {
      "inputs": [
        {
          "internalType": "address",
          "name": "token",
          "type": "address"
        }
      ],
      "name": "approveToken",
      "outputs": [],
      "stateMutability": "nonpayable",
      "type": "function"
    },
    {
      "inputs": [
        {
          "internalType": "address",
          "name": "tokenA",
          "type": "address"
        },
        {
          "internalType": "address",
          "name": "tokenB",
          "type": "address"
        },
        {
          "internalType": "uint256",
          "name": "amountADesired",
          "type": "uint256"
        },
        {
          "internalType": "uint256",
          "name": "amountBDesired",
          "type": "uint256"
        },
        {
          "internalType": "uint256",
          "name": "amountAMin",
          "type": "uint256"
        },
        {
          "internalType": "uint256",
          "name": "amountBMin",
          "type": "uint256"
        }
      ],
      "name": "getAmount",
      "outputs": [
        {
          "internalType": "uint256",
          "name": "amountA",
          "type": "uint256"
        },
        {
          "internalType": "uint256",
          "name": "amountB",
          "type": "uint256"
        }
      ],
      "stateMutability": "view",
      "type": "function"
    },
    {
      "inputs": [
        {
          "internalType": "uint256",
          "name": "amountOut",
          "type": "uint256"
        },
        {
          "internalType": "address[]",
          "name": "path",
          "type": "address[]"
        }
      ],
      "name": "getAmountsIn",
      "outputs": [
        {
          "internalType": "uint256[]",
          "name": "amounts",
          "type": "uint256[]"
        }
      ],
      "stateMutability": "view",
      "type": "function"
    },
    {
      "inputs": [
        {
          "internalType": "uint256",
          "name": "amountIn",
          "type": "uint256"
        },
        {
          "internalType": "address[]",
          "name": "path",
          "type": "address[]"
        }
      ],
      "name": "getAmountsOut",
      "outputs": [
        {
          "internalType": "uint256[]",
          "name": "amounts",
          "type": "uint256[]"
        }
      ],
      "stateMutability": "view",
      "type": "function"
    },
    {
      "inputs": [],
      "name": "getFactoryAddress",
      "outputs": [
        {
          "internalType": "address",
          "name": "factory",
          "type": "address"
        }
      ],
      "stateMutability": "view",
      "type": "function"
    },
    {
      "inputs": [
        {
          "internalType": "address",
          "name": "tokenA",
          "type": "address"
        },
        {
          "internalType": "address",
          "name": "tokenB",
          "type": "address"
        }
      ],
      "name": "getPair",
      "outputs": [
        {
          "internalType": "address",
          "name": "pairAddress",
          "type": "address"
        }
      ],
      "stateMutability": "view",
      "type": "function"
    },
    {
      "inputs": [],
      "name": "getWETH",
      "outputs": [
        {
          "internalType": "address",
          "name": "weth",
          "type": "address"
        }
      ],
      "stateMutability": "view",
      "type": "function"
    },
    {
      "inputs": [],
      "name": "router",
      "outputs": [
        {
          "internalType": "contract ISpiritRouter",
          "name": "",
          "type": "address"
        }
      ],
      "stateMutability": "view",
      "type": "function"
    },
    {
      "inputs": [
        {
          "internalType": "address",
          "name": "token",
          "type": "address"
        },
        {
          "internalType": "uint256",
          "name": "amount",
          "type": "uint256"
        }
      ],
      "name": "safeTransfer",
      "outputs": [],
      "stateMutability": "nonpayable",
      "type": "function"
    },
    {
      "inputs": [
        {
          "internalType": "uint256",
          "name": "amountOut",
          "type": "uint256"
        },
        {
          "internalType": "address[]",
          "name": "path",
          "type": "address[]"
        },
        {
          "internalType": "address",
          "name": "to",
          "type": "address"
        },
        {
          "internalType": "uint256",
          "name": "deadline",
          "type": "uint256"
        }
      ],
      "name": "swapETHForExactTokens",
      "outputs": [
        {
          "internalType": "uint256[]",
          "name": "amounts",
          "type": "uint256[]"
        }
      ],
      "stateMutability": "payable",
      "type": "function"
    },
    {
      "stateMutability": "payable",
      "type": "receive"
    }
  ],
  "bytecode": "0x60806040527316327e3fbdaca3bcf7e38f5af2599d2ddc33ae526000806101000a81548173ffffffffffffffffffffffffffffffffffffffff021916908373ffffffffffffffffffffffffffffffffffffffff16021790555034801561006457600080fd5b506126dd806100746000396000f3fe6080604052600436106100ab5760003560e01c8063d06ca61f11610064578063d06ca61f146103bd578063e6a43905146104e1578063e8e337001461057c578063f305d71914610662578063f887ea4014610710578063fb3bdb4114610751576100b2565b80631f00ca74146100b7578063423f6cef146101db57806380b2edd81461023657806388879cb414610287578063a9c2e36c1461033b578063cae5f11e1461037c576100b2565b366100b257005b600080fd5b3480156100c357600080fd5b50610184600480360360408110156100da57600080fd5b81019080803590602001909291908035906020019064010000000081111561010157600080fd5b82018360208201111561011357600080fd5b8035906020019184602083028401116401000000008311171561013557600080fd5b919080806020026020016040519081016040528093929190818152602001838360200280828437600081840152601f19601f820116905080830192505050505050509192919290505050610853565b6040518080602001828103825283818151815260200191508051906020019060200280838360005b838110156101c75780820151818401526020810190506101ac565b505050509050019250505060405180910390f35b3480156101e757600080fd5b50610234600480360360408110156101fe57600080fd5b81019080803573ffffffffffffffffffffffffffffffffffffffff169060200190929190803590602001909291905050506109ec565b005b34801561024257600080fd5b506102856004803603602081101561025957600080fd5b81019080803573ffffffffffffffffffffffffffffffffffffffff169060200190929190505050610ac9565b005b34801561029357600080fd5b5061031e600480360360c08110156102aa57600080fd5b81019080803573ffffffffffffffffffffffffffffffffffffffff169060200190929190803573ffffffffffffffffffffffffffffffffffffffff16906020019092919080359060200190929190803590602001909291908035906020019092919080359060200190929190505050610c3a565b604051808381526020018281526020019250505060405180910390f35b34801561034757600080fd5b50610350610e1e565b604051808273ffffffffffffffffffffffffffffffffffffffff16815260200191505060405180910390f35b34801561038857600080fd5b50610391610ec7565b604051808273ffffffffffffffffffffffffffffffffffffffff16815260200191505060405180910390f35b3480156103c957600080fd5b5061048a600480360360408110156103e057600080fd5b81019080803590602001909291908035906020019064010000000081111561040757600080fd5b82018360208201111561041957600080fd5b8035906020019184602083028401116401000000008311171561043b57600080fd5b919080806020026020016040519081016040528093929190818152602001838360200280828437600081840152601f19601f820116905080830192505050505050509192919290505050610f70565b6040518080602001828103825283818151815260200191508051906020019060200280838360005b838110156104cd5780820151818401526020810190506104b2565b505050509050019250505060405180910390f35b3480156104ed57600080fd5b506105506004803603604081101561050457600080fd5b81019080803573ffffffffffffffffffffffffffffffffffffffff169060200190929190803573ffffffffffffffffffffffffffffffffffffffff169060200190929190505050611109565b604051808273ffffffffffffffffffffffffffffffffffffffff16815260200191505060405180910390f35b34801561058857600080fd5b5061063e60048036036101008110156105a057600080fd5b81019080803573ffffffffffffffffffffffffffffffffffffffff169060200190929190803573ffffffffffffffffffffffffffffffffffffffff16906020019092919080359060200190929190803590602001909291908035906020019092919080359060200190929190803573ffffffffffffffffffffffffffffffffffffffff169060200190929190803590602001909291905050506111be565b60405180848152602001838152602001828152602001935050505060405180910390f35b6106ec600480360360c081101561067857600080fd5b81019080803573ffffffffffffffffffffffffffffffffffffffff169060200190929190803590602001909291908035906020019092919080359060200190929190803573ffffffffffffffffffffffffffffffffffffffff1690602001909291908035906020019092919050505061144e565b60405180848152602001838152602001828152602001935050505060405180910390f35b34801561071c57600080fd5b5061072561157d565b604051808273ffffffffffffffffffffffffffffffffffffffff16815260200191505060405180910390f35b6107fc6004803603608081101561076757600080fd5b81019080803590602001909291908035906020019064010000000081111561078e57600080fd5b8201836020820111156107a057600080fd5b803590602001918460208302840111640100000000831117156107c257600080fd5b9091929391929390803573ffffffffffffffffffffffffffffffffffffffff169060200190929190803590602001909291905050506115a1565b6040518080602001828103825283818151815260200191508051906020019060200280838360005b8381101561083f578082015181840152602081019050610824565b505050509050019250505060405180910390f35b606060008054906101000a900473ffffffffffffffffffffffffffffffffffffffff1673ffffffffffffffffffffffffffffffffffffffff16631f00ca7484846040518363ffffffff1660e01b81526004018083815260200180602001828103825283818151815260200191508051906020019060200280838360005b838110156108eb5780820151818401526020810190506108d0565b50505050905001935050505060006040518083038186803b15801561090f57600080fd5b505afa158015610923573d6000803e3d6000fd5b505050506040513d6000823e3d601f19601f82011682018060405250602081101561094d57600080fd5b810190808051604051939291908464010000000082111561096d57600080fd5b8382019150602082018581111561098357600080fd5b82518660208202830111640100000000821117156109a057600080fd5b8083526020830192505050908051906020019060200280838360005b838110156109d75780820151818401526020810190506109bc565b50505050905001604052505050905092915050565b6109f882333084611754565b8173ffffffffffffffffffffffffffffffffffffffff1663095ea7b360008054906101000a900473ffffffffffffffffffffffffffffffffffffffff16836040518363ffffffff1660e01b8152600401808373ffffffffffffffffffffffffffffffffffffffff16815260200182815260200192505050602060405180830381600087803b158015610a8957600080fd5b505af1158015610a9d573d6000803e3d6000fd5b505050506040513d6020811015610ab357600080fd5b8101908080519060200190929190505050505050565b8073ffffffffffffffffffffffffffffffffffffffff1663095ea7b360008054906101000a900473ffffffffffffffffffffffffffffffffffffffff168373ffffffffffffffffffffffffffffffffffffffff166370a08231306040518263ffffffff1660e01b8152600401808273ffffffffffffffffffffffffffffffffffffffff16815260200191505060206040518083038186803b158015610b6d57600080fd5b505afa158015610b81573d6000803e3d6000fd5b505050506040513d6020811015610b9757600080fd5b81019080805190602001909291905050506040518363ffffffff1660e01b8152600401808373ffffffffffffffffffffffffffffffffffffffff16815260200182815260200192505050602060405180830381600087803b158015610bfb57600080fd5b505af1158015610c0f573d6000803e3d6000fd5b505050506040513d6020811015610c2557600080fd5b81019080805190602001909291905050505050565b600080600080610ceb60008054906101000a900473ffffffffffffffffffffffffffffffffffffffff1673ffffffffffffffffffffffffffffffffffffffff1663c45a01556040518163ffffffff1660e01b815260040160206040518083038186803b158015610ca957600080fd5b505afa158015610cbd573d6000803e3d6000fd5b505050506040513d6020811015610cd357600080fd5b81019080805190602001909291905050508b8b6119bf565b91509150600082148015610cff5750600081145b15610d135787878094508195505050610e11565b6000610d20898484611af4565b9050878111610d915785811015610d82576040517f08c379a00000000000000000000000000000000000000000000000000000000081526004018080602001828103825260238152602001806125b46023913960400191505060405180910390fd5b88818095508196505050610e0f565b6000610d9e898486611af4565b905089811115610daa57fe5b87811015610e03576040517f08c379a000000000000000000000000000000000000000000000000000000000815260040180806020018281038252602381526020018061263f6023913960400191505060405180910390fd5b80898096508197505050505b505b5050965096945050505050565b60008060009054906101000a900473ffffffffffffffffffffffffffffffffffffffff1673ffffffffffffffffffffffffffffffffffffffff1663c45a01556040518163ffffffff1660e01b815260040160206040518083038186803b158015610e8757600080fd5b505afa158015610e9b573d6000803e3d6000fd5b505050506040513d6020811015610eb157600080fd5b8101908080519060200190929190505050905090565b60008060009054906101000a900473ffffffffffffffffffffffffffffffffffffffff1673ffffffffffffffffffffffffffffffffffffffff1663ad5c46486040518163ffffffff1660e01b815260040160206040518083038186803b158015610f3057600080fd5b505afa158015610f44573d6000803e3d6000fd5b505050506040513d6020811015610f5a57600080fd5b8101908080519060200190929190505050905090565b606060008054906101000a900473ffffffffffffffffffffffffffffffffffffffff1673ffffffffffffffffffffffffffffffffffffffff1663d06ca61f84846040518363ffffffff1660e01b81526004018083815260200180602001828103825283818151815260200191508051906020019060200280838360005b83811015611008578082015181840152602081019050610fed565b50505050905001935050505060006040518083038186803b15801561102c57600080fd5b505afa158015611040573d6000803e3d6000fd5b505050506040513d6000823e3d601f19601f82011682018060405250602081101561106a57600080fd5b810190808051604051939291908464010000000082111561108a57600080fd5b838201915060208201858111156110a057600080fd5b82518660208202830111640100000000821117156110bd57600080fd5b8083526020830192505050908051906020019060200280838360005b838110156110f45780820151818401526020810190506110d9565b50505050905001604052505050905092915050565b60006111b660008054906101000a900473ffffffffffffffffffffffffffffffffffffffff1673ffffffffffffffffffffffffffffffffffffffff1663c45a01556040518163ffffffff1660e01b815260040160206040518083038186803b15801561117457600080fd5b505afa158015611188573d6000803e3d6000fd5b505050506040513d602081101561119e57600080fd5b81019080805190602001909291905050508484611bd8565b905092915050565b6000806000834281101561123a576040517f08c379a00000000000000000000000000000000000000000000000000000000081526004018080602001828103825260158152602001807f537069726974526f757465723a2045585049524544000000000000000000000081525060200191505060405180910390fd5b60008054906101000a900473ffffffffffffffffffffffffffffffffffffffff1673ffffffffffffffffffffffffffffffffffffffff1663e8e337008d8d8d8d8d8d8d8d6040518963ffffffff1660e01b8152600401808973ffffffffffffffffffffffffffffffffffffffff1681526020018873ffffffffffffffffffffffffffffffffffffffff1681526020018781526020018681526020018581526020018481526020018373ffffffffffffffffffffffffffffffffffffffff16815260200182815260200198505050505050505050606060405180830381600087803b15801561132757600080fd5b505af115801561133b573d6000803e3d6000fd5b505050506040513d606081101561135157600080fd5b810190808051906020019092919080519060200190929190805190602001909291905050508094508195508296505050506113c16040518060400160405280600981526020017f416d6f756e7420413a000000000000000000000000000000000000000000000081525085611cf1565b6114006040518060400160405280600981526020017f416d6f756e7420423a000000000000000000000000000000000000000000000081525084611cf1565b61143f6040518060400160405280600a81526020017f4c69717569646974793a0000000000000000000000000000000000000000000081525083611cf1565b50985098509895505050505050565b60008060008060009054906101000a900473ffffffffffffffffffffffffffffffffffffffff1673ffffffffffffffffffffffffffffffffffffffff1663f305d719348b8b8b8b8b8b6040518863ffffffff1660e01b8152600401808773ffffffffffffffffffffffffffffffffffffffff1681526020018681526020018581526020018481526020018373ffffffffffffffffffffffffffffffffffffffff16815260200182815260200196505050505050506060604051808303818588803b15801561151b57600080fd5b505af115801561152f573d6000803e3d6000fd5b50505050506040513d606081101561154657600080fd5b8101908080519060200190929190805190602001909291908051906020019092919050505092509250925096509650969350505050565b60008054906101000a900473ffffffffffffffffffffffffffffffffffffffff1681565b606060008054906101000a900473ffffffffffffffffffffffffffffffffffffffff1673ffffffffffffffffffffffffffffffffffffffff1663fb3bdb413488888888886040518763ffffffff1660e01b815260040180868152602001806020018473ffffffffffffffffffffffffffffffffffffffff1681526020018381526020018281038252868682818152602001925060200280828437600081840152601f19601f82011690508083019250505096505050505050506000604051808303818588803b15801561167357600080fd5b505af1158015611687573d6000803e3d6000fd5b50505050506040513d6000823e3d601f19601f8201168201806040525060208110156116b257600080fd5b81019080805160405193929190846401000000008211156116d257600080fd5b838201915060208201858111156116e857600080fd5b825186602082028301116401000000008211171561170557600080fd5b8083526020830192505050908051906020019060200280838360005b8381101561173c578082015181840152602081019050611721565b50505050905001604052505050905095945050505050565b600060608573ffffffffffffffffffffffffffffffffffffffff166323b872dd868686604051602401808473ffffffffffffffffffffffffffffffffffffffff1681526020018373ffffffffffffffffffffffffffffffffffffffff16815260200182815260200193505050506040516020818303038152906040529060e01b6020820180517bffffffffffffffffffffffffffffffffffffffffffffffffffffffff83818316178352505050506040518082805190602001908083835b602083106118355780518252602082019150602081019050602083039250611812565b6001836020036101000a0380198251168184511680821785525050505050509050019150506000604051808303816000865af19150503d8060008114611897576040519150601f19603f3d011682016040523d82523d6000602084013e61189c565b606091505b50915091506118e06040518060400160405280600881526020017f726573756c74313a00000000000000000000000000000000000000000000000081525083611df8565b61191e6040518060400160405280600881526020017f726573756c74323a000000000000000000000000000000000000000000000000815250611f01565b61192781611fff565b8180156119625750600081511480611961575080806020019051602081101561194f57600080fd5b81019080805190602001909291905050505b5b6119b7576040517f08c379a00000000000000000000000000000000000000000000000000000000081526004018080602001828103825260248152602001806126846024913960400191505060405180910390fd5b505050505050565b60008060006119ce85856120fd565b5090506119dc868686612274565b506000806119eb888888612274565b73ffffffffffffffffffffffffffffffffffffffff16630902f1ac6040518163ffffffff1660e01b815260040160606040518083038186803b158015611a3057600080fd5b505afa158015611a44573d6000803e3d6000fd5b505050506040513d6060811015611a5a57600080fd5b81019080805190602001909291908051906020019092919080519060200190929190505050506dffffffffffffffffffffffffffff1691506dffffffffffffffffffffffffffff1691508273ffffffffffffffffffffffffffffffffffffffff168773ffffffffffffffffffffffffffffffffffffffff1614611ade578082611ae1565b81815b8095508196505050505050935093915050565b6000808411611b4e576040517f08c379a00000000000000000000000000000000000000000000000000000000081526004018080602001828103825260228152602001806126626022913960400191505060405180910390fd5b600083118015611b5e5750600082115b611bb3576040517f08c379a00000000000000000000000000000000000000000000000000000000081526004018080602001828103825260258152602001806125f96025913960400191505060405180910390fd5b82611bc7838661238d90919063ffffffff16565b81611bce57fe5b0490509392505050565b6000806000611be78585612413565b91509150858282604051602001808373ffffffffffffffffffffffffffffffffffffffff1660601b81526014018273ffffffffffffffffffffffffffffffffffffffff1660601b8152601401925050506040516020818303038152906040528051906020012060405160200180807fff000000000000000000000000000000000000000000000000000000000000008152506001018373ffffffffffffffffffffffffffffffffffffffff1660601b8152601401828152602001807fe242e798f6cee26a9cb0bbf24653bf066e5356ffeac160907fe2cc108e238617815250602001925050506040516020818303038152906040528051906020012060001c925050509392505050565b611df482826040516024018080602001838152602001828103825284818151815260200191508051906020019080838360005b83811015611d3f578082015181840152602081019050611d24565b50505050905090810190601f168015611d6c5780820380516001836020036101000a031916815260200191505b5093505050506040516020818303038152906040527f9710a9d0000000000000000000000000000000000000000000000000000000007bffffffffffffffffffffffffffffffffffffffffffffffffffffffff19166020820180517bffffffffffffffffffffffffffffffffffffffffffffffffffffffff838183161783525050505061258a565b5050565b611efd828260405160240180806020018315158152602001828103825284818151815260200191508051906020019080838360005b83811015611e48578082015181840152602081019050611e2d565b50505050905090810190601f168015611e755780820380516001836020036101000a031916815260200191505b5093505050506040516020818303038152906040527fc3b55635000000000000000000000000000000000000000000000000000000007bffffffffffffffffffffffffffffffffffffffffffffffffffffffff19166020820180517bffffffffffffffffffffffffffffffffffffffffffffffffffffffff838183161783525050505061258a565b5050565b611ffc816040516024018080602001828103825283818151815260200191508051906020019080838360005b83811015611f48578082015181840152602081019050611f2d565b50505050905090810190601f168015611f755780820380516001836020036101000a031916815260200191505b50925050506040516020818303038152906040527f41304fac000000000000000000000000000000000000000000000000000000007bffffffffffffffffffffffffffffffffffffffffffffffffffffffff19166020820180517bffffffffffffffffffffffffffffffffffffffffffffffffffffffff838183161783525050505061258a565b50565b6120fa816040516024018080602001828103825283818151815260200191508051906020019080838360005b8381101561204657808201518184015260208101905061202b565b50505050905090810190601f1680156120735780820380516001836020036101000a031916815260200191505b50925050506040516020818303038152906040527f0be77f56000000000000000000000000000000000000000000000000000000007bffffffffffffffffffffffffffffffffffffffffffffffffffffffff19166020820180517bffffffffffffffffffffffffffffffffffffffffffffffffffffffff838183161783525050505061258a565b50565b6000808273ffffffffffffffffffffffffffffffffffffffff168473ffffffffffffffffffffffffffffffffffffffff161415612185576040517f08c379a00000000000000000000000000000000000000000000000000000000081526004018080602001828103825260228152602001806125d76022913960400191505060405180910390fd5b8273ffffffffffffffffffffffffffffffffffffffff168473ffffffffffffffffffffffffffffffffffffffff16106121bf5782846121c2565b83835b8092508193505050600073ffffffffffffffffffffffffffffffffffffffff168273ffffffffffffffffffffffffffffffffffffffff16141561226d576040517f08c379a000000000000000000000000000000000000000000000000000000000815260040180806020018281038252601b8152602001807f5370697269744c6962726172793a205a45524f5f41444452455353000000000081525060200191505060405180910390fd5b9250929050565b600080600061228385856120fd565b91509150858282604051602001808373ffffffffffffffffffffffffffffffffffffffff1660601b81526014018273ffffffffffffffffffffffffffffffffffffffff1660601b8152601401925050506040516020818303038152906040528051906020012060405160200180807fff000000000000000000000000000000000000000000000000000000000000008152506001018373ffffffffffffffffffffffffffffffffffffffff1660601b8152601401828152602001807fe242e798f6cee26a9cb0bbf24653bf066e5356ffeac160907fe2cc108e238617815250602001925050506040516020818303038152906040528051906020012060001c925050509392505050565b6000808314156123a0576000905061240d565b60008284029050828482816123b157fe5b0414612408576040517f08c379a000000000000000000000000000000000000000000000000000000000815260040180806020018281038252602181526020018061261e6021913960400191505060405180910390fd5b809150505b92915050565b6000808273ffffffffffffffffffffffffffffffffffffffff168473ffffffffffffffffffffffffffffffffffffffff16141561249b576040517f08c379a00000000000000000000000000000000000000000000000000000000081526004018080602001828103825260228152602001806125d76022913960400191505060405180910390fd5b8273ffffffffffffffffffffffffffffffffffffffff168473ffffffffffffffffffffffffffffffffffffffff16106124d55782846124d8565b83835b8092508193505050600073ffffffffffffffffffffffffffffffffffffffff168273ffffffffffffffffffffffffffffffffffffffff161415612583576040517f08c379a000000000000000000000000000000000000000000000000000000000815260040180806020018281038252601b8152602001807f5370697269744c6962726172793a205a45524f5f41444452455353000000000081525060200191505060405180910390fd5b9250929050565b60008151905060006a636f6e736f6c652e6c6f679050602083016000808483855afa505050505056fe537069726974526f757465723a20494e53554646494349454e545f425f414d4f554e545370697269744c6962726172793a204944454e544943414c5f4144445245535345535370697269744c6962726172793a20494e53554646494349454e545f4c4951554944495459536166654d6174683a206d756c7469706c69636174696f6e206f766572666c6f77537069726974526f757465723a20494e53554646494349454e545f415f414d4f554e545370697269744c6962726172793a20494e53554646494349454e545f414d4f554e545472616e7366657248656c7065723a205452414e534645525f46524f4d5f4641494c4544a2646970667358221220420811661c80166b5aec581adee094e4691755f0813bc72955200bcb20376d5b64736f6c634300060c0033",
  "linkReferences": {},
  "deployedLinkReferences": {}
}